{
  "contractName": "EventContract",
  "abi": [
    {
      "constant": false,
      "inputs": [
        {
          "name": "_bookDataHash",
          "type": "bytes32"
        },
        {
          "name": "_cancelledAt",
          "type": "uint256"
        }
      ],
      "name": "cancel",
      "outputs": [],
      "payable": false,
      "stateMutability": "nonpayable",
      "type": "function"
    },
    {
      "constant": false,
      "inputs": [
        {
          "name": "_bookDataHash",
          "type": "bytes32"
        },
        {
          "name": "_startDate",
          "type": "uint256"
        },
        {
          "name": "_duration",
          "type": "uint256"
        }
      ],
      "name": "book",
      "outputs": [],
      "payable": false,
      "stateMutability": "nonpayable",
      "type": "function"
    },
    {
      "constant": false,
      "inputs": [
        {
          "name": "_guests",
          "type": "uint256"
        },
        {
          "name": "_bed",
          "type": "uint256"
        },
        {
          "name": "_bedroom",
          "type": "uint256"
        },
        {
          "name": "_bathroom",
          "type": "uint256"
        }
      ],
      "name": "updateCapacity",
      "outputs": [],
      "payable": false,
      "stateMutability": "nonpayable",
      "type": "function"
    },
    {
      "constant": false,
      "inputs": [
        {
          "name": "_owner",
          "type": "address"
        },
        {
          "name": "_name",
          "type": "string"
        },
        {
          "name": "_description",
          "type": "string"
        },
        {
          "name": "_streetAddress",
          "type": "string"
        },
        {
          "name": "_price",
          "type": "uint256"
        }
      ],
      "name": "newHome",
      "outputs": [],
      "payable": false,
      "stateMutability": "nonpayable",
      "type": "function"
    },
    {
      "constant": false,
      "inputs": [
        {
          "name": "_bookDataHash",
          "type": "bytes32"
        },
        {
          "name": "_checkoutAt",
          "type": "uint256"
        }
      ],
      "name": "checkout",
      "outputs": [],
      "payable": false,
      "stateMutability": "nonpayable",
      "type": "function"
    },
    {
      "constant": false,
      "inputs": [
        {
          "name": "_bookDataHash",
          "type": "bytes32"
        },
        {
          "name": "_message",
          "type": "string"
        }
      ],
      "name": "requireResolve",
      "outputs": [
        {
          "name": "",
          "type": "address"
        }
      ],
      "payable": false,
      "stateMutability": "nonpayable",
      "type": "function"
    },
    {
      "constant": true,
      "inputs": [
        {
          "name": "_name",
          "type": "string"
        },
        {
          "name": "_description",
          "type": "string"
        },
        {
          "name": "_streetAddress",
          "type": "string"
        },
        {
          "name": "_price",
          "type": "uint256"
        }
      ],
      "name": "owner",
      "outputs": [
        {
          "name": "",
          "type": "address"
        }
      ],
      "payable": false,
      "stateMutability": "view",
      "type": "function"
    },
    {
      "constant": false,
      "inputs": [
        {
          "name": "_name",
          "type": "string"
        },
        {
          "name": "_description",
          "type": "string"
        },
        {
          "name": "_streetAddress",
          "type": "string"
        },
        {
          "name": "_price",
          "type": "uint256"
        }
      ],
      "name": "updateInfo",
      "outputs": [],
      "payable": false,
      "stateMutability": "nonpayable",
      "type": "function"
    },
    {
      "constant": false,
      "inputs": [
        {
          "name": "_bookDataHash",
          "type": "bytes32"
        },
        {
          "name": "_checkinAt",
          "type": "uint256"
        },
        {
          "name": "_iron",
          "type": "bool"
        },
        {
          "name": "_hangers",
          "type": "bool"
        }
      ],
      "name": "checkin",
      "outputs": [],
      "payable": false,
      "stateMutability": "nonpayable",
      "type": "function"
    },
    {
      "inputs": [
        {
          "name": "_internet",
          "type": "bool"
        },
        {
          "name": "_kitchen",
          "type": "bool"
        },
        {
          "name": "_iron",
          "type": "bool"
        },
        {
          "name": "_hangers",
          "type": "bool"
        }
      ],
      "payable": false,
      "stateMutability": "nonpayable",
      "type": "function",
      "constant": false,
      "name": "updateFeature",
      "outputs": []
    },
    {
      "anonymous": false,
      "inputs": [
        {
          "indexed": false,
          "name": "caller",
          "type": "address"
        },
        {
          "indexed": false,
          "name": "_name",
          "type": "string"
        },
        {
          "indexed": false,
          "name": "_description",
          "type": "string"
        },
        {
          "indexed": false,
          "name": "_streetAddress",
          "type": "string"
        },
        {
          "indexed": false,
          "name": "_price",
          "type": "uint256"
        }
      ],
      "name": "UpdateInfo",
      "type": "constructor",
      "payable": false,
      "stateMutability": "nonpayable"
    },
    {
      "anonymous": false,
      "inputs": [
        {
          "indexed": false,
          "name": "_contractAddress",
          "type": "address"
        },
        {
          "indexed": false,
          "name": "_owner",
          "type": "address"
        },
        {
          "indexed": false,
          "name": "_name",
          "type": "string"
        },
        {
          "indexed": false,
          "name": "_description",
          "type": "string"
        },
        {
          "indexed": false,
          "name": "_streetAddress",
          "type": "string"
        },
        {
          "indexed": false,
          "name": "_price",
          "type": "uint256"
        }
      ],
      "name": "NewHome",
      "type": "event"
    },
    {
      "anonymous": false,
      "inputs": [
        {
          "indexed": false,
          "name": "caller",
          "type": "address"
        },
        {
          "indexed": false,
          "name": "_name",
          "type": "string"
        },
        {
          "indexed": false,
          "name": "_description",
          "type": "string"
        },
        {
          "indexed": false,
          "name": "_streetAddress",
          "type": "string"
        },
        {
          "indexed": false,
          "name": "_price",
          "type": "uint256"
        }
      ],
      "name": "UpdateInfo",
      "type": "event"
    },
    {
      "anonymous": false,
      "inputs": [
        {
          "indexed": false,
          "name": "caller",
          "type": "address"
        },
        {
          "indexed": false,
          "name": "_guests",
          "type": "uint256"
        },
        {
          "indexed": false,
          "name": "_bed",
          "type": "uint256"
        },
        {
          "indexed": false,
          "name": "_bedroom",
          "type": "uint256"
        },
        {
          "indexed": false,
          "name": "_bathroom",
          "type": "uint256"
        }
      ],
      "name": "UpdateCapacity",
      "type": "event"
    },
    {
      "anonymous": false,
      "inputs": [
        {
          "indexed": false,
          "name": "caller",
          "type": "address"
        },
        {
          "indexed": false,
          "name": "_internet",
          "type": "bool"
        },
        {
          "indexed": false,
          "name": "_kitchen",
          "type": "bool"
        },
        {
          "indexed": false,
          "name": "_iron",
          "type": "bool"
        },
        {
          "indexed": false,
          "name": "_hangers",
          "type": "bool"
        }
      ],
      "name": "UpdateFeature",
      "type": "event"
    },
    {
      "anonymous": false,
      "inputs": [
        {
          "indexed": false,
          "name": "caller",
          "type": "address"
        },
        {
          "indexed": false,
          "name": "_bookDataHash",
          "type": "bytes32"
        },
        {
          "indexed": false,
          "name": "_startDate",
          "type": "uint256"
        },
        {
          "indexed": false,
          "name": "_duration",
          "type": "uint256"
        }
      ],
      "name": "Book",
      "type": "event"
    },
    {
      "anonymous": false,
      "inputs": [
        {
          "indexed": false,
          "name": "caller",
          "type": "address"
        },
        {
          "indexed": false,
          "name": "_bookDataHash",
          "type": "bytes32"
        },
        {
          "indexed": false,
          "name": "_cancelledAt",
          "type": "uint256"
        }
      ],
      "name": "Cancel",
      "type": "event"
    },
    {
      "anonymous": false,
      "inputs": [
        {
          "indexed": false,
          "name": "caller",
          "type": "address"
        },
        {
          "indexed": false,
          "name": "_bookDataHash",
          "type": "bytes32"
        },
        {
          "indexed": false,
          "name": "_checkinAt",
          "type": "uint256"
        }
      ],
      "name": "Checkin",
      "type": "event"
    },
    {
      "anonymous": false,
      "inputs": [
        {
          "indexed": false,
          "name": "caller",
          "type": "address"
        },
        {
          "indexed": false,
          "name": "_bookDataHash",
          "type": "bytes32"
        },
        {
          "indexed": false,
          "name": "_checkoutAt",
          "type": "uint256"
        }
      ],
      "name": "Checkout",
      "type": "event"
    },
    {
      "anonymous": false,
      "inputs": [
        {
          "indexed": false,
          "name": "caller",
          "type": "address"
        },
        {
          "indexed": false,
          "name": "_bookDataHash",
          "type": "bytes32"
        },
        {
          "indexed": false,
          "name": "_message",
          "type": "string"
        }
      ],
      "name": "RequireResolve",
      "type": "event"
    }
  ],
  "bytecode": "0x6060604052341561000f57600080fd5b336000806101000a81548173ffffffffffffffffffffffffffffffffffffffff021916908373ffffffffffffffffffffffffffffffffffffffff160217905550610cad8061005e6000396000f3006060604052600436106100a4576000357c0100000000000000000000000000000000000000000000000000000000900463ffffffff168063069455a0146100a95780632da8ea79146100d95780634812601d146101125780635067ff6e1461015057806350ed3b891461025b5780635aa185cc1461028b5780638da5cb5b146102f55780639b8de6281461034a578063b2a59f3014610436578063e7a2628c14610466575b600080fd5b34156100b457600080fd5b6100d76004808035600019169060200190919080359060200190919050506104ac565b005b34156100e457600080fd5b61011060048080356000191690602001909190803590602001909190803590602001909190505061052b565b005b341561011d57600080fd5b61014e60048080359060200190919080359060200190919080359060200190919080359060200190919050506105b3565b005b341561015b57600080fd5b610259600480803573ffffffffffffffffffffffffffffffffffffffff1690602001909190803590602001908201803590602001908080601f0160208091040260200160405190810160405280939291908181526020018383808284378201915050505050509190803590602001908201803590602001908080601f0160208091040260200160405190810160405280939291908181526020018383808284378201915050505050509190803590602001908201803590602001908080601f0160208091040260200160405190810160405280939291908181526020018383808284378201915050505050509190803590602001909190505061063c565b005b341561026657600080fd5b610289600480803560001916906020019091908035906020019091905050610829565b005b341561029657600080fd5b6102f360048080356000191690602001909190803590602001908201803590602001908080601f016020809104026020016040519081016040528093929190818152602001838380828437820191505050505050919050506108a8565b005b341561030057600080fd5b61030861098c565b604051808273ffffffffffffffffffffffffffffffffffffffff1673ffffffffffffffffffffffffffffffffffffffff16815260200191505060405180910390f35b341561035557600080fd5b610434600480803590602001908201803590602001908080601f0160208091040260200160405190810160405280939291908181526020018383808284378201915050505050509190803590602001908201803590602001908080601f0160208091040260200160405190810160405280939291908181526020018383808284378201915050505050509190803590602001908201803590602001908080601f016020809104026020016040519081016040528093929190818152602001838380828437820191505050505050919080359060200190919050506109b1565b005b341561044157600080fd5b610464600480803560001916906020019091908035906020019091905050610b69565b005b341561047157600080fd5b6104aa60048080351515906020019091908035151590602001909190803515159060200190919080351515906020019091905050610be8565b005b7fcf2d1b815b936adb435f34e35cce04122b5bbbf57faf74ac5e32dd1b1100d3ab338383604051808473ffffffffffffffffffffffffffffffffffffffff1673ffffffffffffffffffffffffffffffffffffffff1681526020018360001916600019168152602001828152602001935050505060405180910390a15050565b7f91677935de4f00e02457e7a5a9253db8f81b1a14ee3d962e07a7f23b09cf4ddc33848484604051808573ffffffffffffffffffffffffffffffffffffffff1673ffffffffffffffffffffffffffffffffffffffff168152602001846000191660001916815260200183815260200182815260200194505050505060405180910390a1505050565b7f68e4d69ead11b9f92f2df7fc0b5c96ce110cde2b40af8aba0791e5c026c9e73a3385858585604051808673ffffffffffffffffffffffffffffffffffffffff1673ffffffffffffffffffffffffffffffffffffffff1681526020018581526020018481526020018381526020018281526020019550505050505060405180910390a150505050565b7f4e030b8d830fde8efea3435981381dfe4755797da49dc285e157b7076e1ac0d7338686868686604051808773ffffffffffffffffffffffffffffffffffffffff1673ffffffffffffffffffffffffffffffffffffffff1681526020018673ffffffffffffffffffffffffffffffffffffffff1673ffffffffffffffffffffffffffffffffffffffff168152602001806020018060200180602001858152602001848103845288818151815260200191508051906020019080838360005b838110156107155780820151818401526020810190506106fa565b50505050905090810190601f1680156107425780820380516001836020036101000a031916815260200191505b50848103835287818151815260200191508051906020019080838360005b8381101561077b578082015181840152602081019050610760565b50505050905090810190601f1680156107a85780820380516001836020036101000a031916815260200191505b50848103825286818151815260200191508051906020019080838360005b838110156107e15780820151818401526020810190506107c6565b50505050905090810190601f16801561080e5780820380516001836020036101000a031916815260200191505b50995050505050505050505060405180910390a15050505050565b7fe4b7cbed7a23b4333bec4656beb61ef1fa41cbd9a96bb17794281f90ba9c29b0338383604051808473ffffffffffffffffffffffffffffffffffffffff1673ffffffffffffffffffffffffffffffffffffffff1681526020018360001916600019168152602001828152602001935050505060405180910390a15050565b7fe8d81a2cc43f85d1681e4046e6ec055bc522fbc5adb4ba40842db868b4cfabd2338383604051808473ffffffffffffffffffffffffffffffffffffffff1673ffffffffffffffffffffffffffffffffffffffff168152602001836000191660001916815260200180602001828103825283818151815260200191508051906020019080838360005b8381101561094c578082015181840152602081019050610931565b50505050905090810190601f1680156109795780820380516001836020036101000a031916815260200191505b5094505050505060405180910390a15050565b6000809054906101000a900473ffffffffffffffffffffffffffffffffffffffff1681565b7f50a049491ffe4f694f4342e1e6dd839c6836185332728aa3079cc9de906c4ccf3385858585604051808673ffffffffffffffffffffffffffffffffffffffff1673ffffffffffffffffffffffffffffffffffffffff168152602001806020018060200180602001858152602001848103845288818151815260200191508051906020019080838360005b83811015610a57578082015181840152602081019050610a3c565b50505050905090810190601f168015610a845780820380516001836020036101000a031916815260200191505b50848103835287818151815260200191508051906020019080838360005b83811015610abd578082015181840152602081019050610aa2565b50505050905090810190601f168015610aea5780820380516001836020036101000a031916815260200191505b50848103825286818151815260200191508051906020019080838360005b83811015610b23578082015181840152602081019050610b08565b50505050905090810190601f168015610b505780820380516001836020036101000a031916815260200191505b509850505050505050505060405180910390a150505050565b7f53d845b6c86950c7b3c349118886c0a51ceaedf1ac3087baf2f869517e00dba2338383604051808473ffffffffffffffffffffffffffffffffffffffff1673ffffffffffffffffffffffffffffffffffffffff1681526020018360001916600019168152602001828152602001935050505060405180910390a15050565b7f42a0ecb4c81ed8ebaa8c71453df6b4d6020dfa110543177a2fa0fb4632ca24493385858585604051808673ffffffffffffffffffffffffffffffffffffffff1673ffffffffffffffffffffffffffffffffffffffff168152602001851515151581526020018415151515815260200183151515158152602001821515151581526020019550505050505060405180910390a1505050505600a165627a7a723058200b67823f6aabdc17a60a755a6325fbf1aa7a4b7fd691336be4b5559a70f45dfa0029",
  "source": "pragma solidity 0.4.18;\n\ncontract EventContract {\n    address public owner;\n\n    function EventContract() public {\n        owner = msg.sender;\n    }\n\n    event NewHome(address _contractAddress, address _owner, string _name, string _description, string _streetAddress, uint _price);\n    event UpdateInfo(address caller, string _name, string _description, string _streetAddress, uint _price);\n    event UpdateCapacity(address caller, uint _guests, uint _bed, uint _bedroom, uint _bathroom);\n    event UpdateFeature(address caller, bool _internet, bool _kitchen, bool _iron, bool _hangers);\n    event Book(address caller, bytes32 _bookDataHash, uint _startDate, uint _duration);\n    event Cancel(address caller, bytes32 _bookDataHash, uint _cancelledAt);\n    event Checkin(address caller, bytes32 _bookDataHash, uint _checkinAt);\n    event Checkout(address caller, bytes32 _bookDataHash, uint _checkoutAt);\n    event RequireResolve(address caller, bytes32 _bookDataHash, string _message);\n\n    function newHome(address _owner, string _name, string _description, string _streetAddress, uint _price) public {\n        NewHome(msg.sender, _owner, _name, _description, _streetAddress, _price);\n    }\n    \n    function updateInfo(string _name, string _description, string _streetAddress, uint _price) public {\n        UpdateInfo(msg.sender, _name, _description, _streetAddress, _price);\n    }\n    function updateCapacity(uint _guests, uint _bed, uint _bedroom, uint _bathroom) public {\n        UpdateCapacity(msg.sender, _guests, _bed, _bedroom, _bathroom);\n    }\n    function updateFeature(bool _internet, bool _kitchen, bool _iron, bool _hangers)public {\n        UpdateFeature(msg.sender, _internet, _kitchen, _iron, _hangers);\n    }\n    function book(bytes32 _bookDataHash, uint _startDate, uint _duration) public {\n        Book(msg.sender, _bookDataHash, _startDate, _duration);\n    }\n    function cancel(bytes32 _bookDataHash, uint _cancelledAt) public {\n        Cancel(msg.sender, _bookDataHash, _cancelledAt);\n    }\n    function checkin(bytes32 _bookDataHash, uint _checkinAt) public {\n        Checkin(msg.sender, _bookDataHash, _checkinAt);\n    }\n    function checkout(bytes32 _bookDataHash, uint _checkoutAt) public {\n        Checkout(msg.sender, _bookDataHash, _checkoutAt);\n    }\n    function requireResolve (bytes32 _bookDataHash, string _message) public {\n        RequireResolve(msg.sender, _bookDataHash, _message);\n    }\n\n}",
  "sourcePath": "/Users/thvu/Projects/blockathon2017-team1/smart-contracts/contracts/EventContract.sol",
  "compiler": {
    "name": "solc",
    "version": "0.4.18+commit.9cf6e910.Emscripten.clang"
  },
  "schemaVersion": "1.0.1",
  "updatedAt": "2017-11-25T16:02:16.020Z"
}