{
  "contractName": "EventContract",
  "abi": [
    {
      "constant": false,
      "inputs": [
        {
          "name": "_bookDataHash",
          "type": "bytes32"
        },
        {
          "name": "_cancelledAt",
          "type": "uint256"
        }
      ],
      "name": "cancel",
      "outputs": [],
      "payable": false,
      "stateMutability": "nonpayable",
      "type": "function"
    },
    {
      "constant": false,
      "inputs": [
        {
          "name": "_bookDataHash",
          "type": "bytes32"
        },
        {
          "name": "_startDate",
          "type": "uint256"
        },
        {
          "name": "_duration",
          "type": "uint256"
        }
      ],
      "name": "book",
      "outputs": [],
      "payable": false,
      "stateMutability": "nonpayable",
      "type": "function"
    },
    {
      "constant": false,
      "inputs": [
        {
          "name": "_guests",
          "type": "uint256"
        },
        {
          "name": "_bed",
          "type": "uint256"
        },
        {
          "name": "_bedroom",
          "type": "uint256"
        },
        {
          "name": "_bathroom",
          "type": "uint256"
        }
      ],
      "name": "updateCapacity",
      "outputs": [],
      "payable": false,
      "stateMutability": "nonpayable",
      "type": "function"
    },
    {
      "constant": false,
      "inputs": [
        {
          "name": "_bookDataHash",
          "type": "bytes32"
        },
        {
          "name": "_checkoutAt",
          "type": "uint256"
        }
      ],
      "name": "checkout",
      "outputs": [],
      "payable": false,
      "stateMutability": "nonpayable",
      "type": "function"
    },
    {
      "constant": false,
      "inputs": [
        {
          "name": "_bookDataHash",
          "type": "bytes32"
        },
        {
          "name": "_message",
          "type": "string"
        }
      ],
      "name": "requireResolve",
      "outputs": [],
      "payable": false,
      "stateMutability": "nonpayable",
      "type": "function"
    },
    {
      "constant": true,
      "inputs": [],
      "name": "owner",
      "outputs": [
        {
          "name": "",
          "type": "address"
        }
      ],
      "payable": false,
      "stateMutability": "view",
      "type": "function"
    },
    {
      "constant": false,
      "inputs": [
        {
          "name": "_name",
          "type": "string"
        },
        {
          "name": "_description",
          "type": "string"
        },
        {
          "name": "_streetAddress",
          "type": "string"
        },
        {
          "name": "_price",
          "type": "uint256"
        }
      ],
      "name": "updateInfo",
      "outputs": [],
      "payable": false,
      "stateMutability": "nonpayable",
      "type": "function"
    },
    {
      "constant": false,
      "inputs": [
        {
          "name": "_bookDataHash",
          "type": "bytes32"
        },
        {
          "name": "_checkinAt",
          "type": "uint256"
        }
      ],
      "name": "checkin",
      "outputs": [],
      "payable": false,
      "stateMutability": "nonpayable",
      "type": "function"
    },
    {
      "constant": false,
      "inputs": [
        {
          "name": "_internet",
          "type": "bool"
        },
        {
          "name": "_kitchen",
          "type": "bool"
        },
        {
          "name": "_iron",
          "type": "bool"
        },
        {
          "name": "_hangers",
          "type": "bool"
        }
      ],
      "name": "updateFeature",
      "outputs": [],
      "payable": false,
      "stateMutability": "nonpayable",
      "type": "function"
    },
    {
      "inputs": [],
      "payable": false,
      "stateMutability": "nonpayable",
      "type": "constructor"
    },
    {
      "anonymous": false,
      "inputs": [
        {
          "indexed": false,
          "name": "caller",
          "type": "address"
        },
        {
          "indexed": false,
          "name": "_name",
          "type": "string"
        },
        {
          "indexed": false,
          "name": "_description",
          "type": "string"
        },
        {
          "indexed": false,
          "name": "_streetAddress",
          "type": "string"
        },
        {
          "indexed": false,
          "name": "_price",
          "type": "uint256"
        }
      ],
      "name": "UpdateInfo",
      "type": "event"
    },
    {
      "anonymous": false,
      "inputs": [
        {
          "indexed": false,
          "name": "caller",
          "type": "address"
        },
        {
          "indexed": false,
          "name": "_guests",
          "type": "uint256"
        },
        {
          "indexed": false,
          "name": "_bed",
          "type": "uint256"
        },
        {
          "indexed": false,
          "name": "_bedroom",
          "type": "uint256"
        },
        {
          "indexed": false,
          "name": "_bathroom",
          "type": "uint256"
        }
      ],
      "name": "UpdateCapacity",
      "type": "event"
    },
    {
      "anonymous": false,
      "inputs": [
        {
          "indexed": false,
          "name": "caller",
          "type": "address"
        },
        {
          "indexed": false,
          "name": "_internet",
          "type": "bool"
        },
        {
          "indexed": false,
          "name": "_kitchen",
          "type": "bool"
        },
        {
          "indexed": false,
          "name": "_iron",
          "type": "bool"
        },
        {
          "indexed": false,
          "name": "_hangers",
          "type": "bool"
        }
      ],
      "name": "UpdateFeature",
      "type": "event"
    },
    {
      "anonymous": false,
      "inputs": [
        {
          "indexed": false,
          "name": "caller",
          "type": "address"
        },
        {
          "indexed": false,
          "name": "_bookDataHash",
          "type": "bytes32"
        },
        {
          "indexed": false,
          "name": "_startDate",
          "type": "uint256"
        },
        {
          "indexed": false,
          "name": "_duration",
          "type": "uint256"
        }
      ],
      "name": "Book",
      "type": "event"
    },
    {
      "anonymous": false,
      "inputs": [
        {
          "indexed": false,
          "name": "caller",
          "type": "address"
        },
        {
          "indexed": false,
          "name": "_bookDataHash",
          "type": "bytes32"
        },
        {
          "indexed": false,
          "name": "_cancelledAt",
          "type": "uint256"
        }
      ],
      "name": "Cancel",
      "type": "event"
    },
    {
      "anonymous": false,
      "inputs": [
        {
          "indexed": false,
          "name": "caller",
          "type": "address"
        },
        {
          "indexed": false,
          "name": "_bookDataHash",
          "type": "bytes32"
        },
        {
          "indexed": false,
          "name": "_checkinAt",
          "type": "uint256"
        }
      ],
      "name": "Checkin",
      "type": "event"
    },
    {
      "anonymous": false,
      "inputs": [
        {
          "indexed": false,
          "name": "caller",
          "type": "address"
        },
        {
          "indexed": false,
          "name": "_bookDataHash",
          "type": "bytes32"
        },
        {
          "indexed": false,
          "name": "_checkoutAt",
          "type": "uint256"
        }
      ],
      "name": "Checkout",
      "type": "event"
    },
    {
      "anonymous": false,
      "inputs": [
        {
          "indexed": false,
          "name": "caller",
          "type": "address"
        },
        {
          "indexed": false,
          "name": "_bookDataHash",
          "type": "bytes32"
        },
        {
          "indexed": false,
          "name": "_message",
          "type": "string"
        }
      ],
      "name": "RequireResolve",
      "type": "event"
    }
  ],
  "bytecode": "0x6060604052341561000f57600080fd5b336000806101000a81548173ffffffffffffffffffffffffffffffffffffffff021916908373ffffffffffffffffffffffffffffffffffffffff1602179055506109aa8061005e6000396000f300606060405260043610610099576000357c0100000000000000000000000000000000000000000000000000000000900463ffffffff168063069455a01461009e5780632da8ea79146100ce5780634812601d1461010757806350ed3b89146101455780635aa185cc146101755780638da5cb5b146101df5780639b8de62814610234578063b2a59f3014610320578063e7a2628c14610350575b600080fd5b34156100a957600080fd5b6100cc600480803560001916906020019091908035906020019091905050610396565b005b34156100d957600080fd5b610105600480803560001916906020019091908035906020019091908035906020019091905050610415565b005b341561011257600080fd5b610143600480803590602001909190803590602001909190803590602001909190803590602001909190505061049d565b005b341561015057600080fd5b610173600480803560001916906020019091908035906020019091905050610526565b005b341561018057600080fd5b6101dd60048080356000191690602001909190803590602001908201803590602001908080601f016020809104026020016040519081016040528093929190818152602001838380828437820191505050505050919050506105a5565b005b34156101ea57600080fd5b6101f2610689565b604051808273ffffffffffffffffffffffffffffffffffffffff1673ffffffffffffffffffffffffffffffffffffffff16815260200191505060405180910390f35b341561023f57600080fd5b61031e600480803590602001908201803590602001908080601f0160208091040260200160405190810160405280939291908181526020018383808284378201915050505050509190803590602001908201803590602001908080601f0160208091040260200160405190810160405280939291908181526020018383808284378201915050505050509190803590602001908201803590602001908080601f016020809104026020016040519081016040528093929190818152602001838380828437820191505050505050919080359060200190919050506106ae565b005b341561032b57600080fd5b61034e600480803560001916906020019091908035906020019091905050610866565b005b341561035b57600080fd5b610394600480803515159060200190919080351515906020019091908035151590602001909190803515159060200190919050506108e5565b005b7fcf2d1b815b936adb435f34e35cce04122b5bbbf57faf74ac5e32dd1b1100d3ab338383604051808473ffffffffffffffffffffffffffffffffffffffff1673ffffffffffffffffffffffffffffffffffffffff1681526020018360001916600019168152602001828152602001935050505060405180910390a15050565b7f91677935de4f00e02457e7a5a9253db8f81b1a14ee3d962e07a7f23b09cf4ddc33848484604051808573ffffffffffffffffffffffffffffffffffffffff1673ffffffffffffffffffffffffffffffffffffffff168152602001846000191660001916815260200183815260200182815260200194505050505060405180910390a1505050565b7f68e4d69ead11b9f92f2df7fc0b5c96ce110cde2b40af8aba0791e5c026c9e73a3385858585604051808673ffffffffffffffffffffffffffffffffffffffff1673ffffffffffffffffffffffffffffffffffffffff1681526020018581526020018481526020018381526020018281526020019550505050505060405180910390a150505050565b7fe4b7cbed7a23b4333bec4656beb61ef1fa41cbd9a96bb17794281f90ba9c29b0338383604051808473ffffffffffffffffffffffffffffffffffffffff1673ffffffffffffffffffffffffffffffffffffffff1681526020018360001916600019168152602001828152602001935050505060405180910390a15050565b7fe8d81a2cc43f85d1681e4046e6ec055bc522fbc5adb4ba40842db868b4cfabd2338383604051808473ffffffffffffffffffffffffffffffffffffffff1673ffffffffffffffffffffffffffffffffffffffff168152602001836000191660001916815260200180602001828103825283818151815260200191508051906020019080838360005b8381101561064957808201518184015260208101905061062e565b50505050905090810190601f1680156106765780820380516001836020036101000a031916815260200191505b5094505050505060405180910390a15050565b6000809054906101000a900473ffffffffffffffffffffffffffffffffffffffff1681565b7f50a049491ffe4f694f4342e1e6dd839c6836185332728aa3079cc9de906c4ccf3385858585604051808673ffffffffffffffffffffffffffffffffffffffff1673ffffffffffffffffffffffffffffffffffffffff168152602001806020018060200180602001858152602001848103845288818151815260200191508051906020019080838360005b83811015610754578082015181840152602081019050610739565b50505050905090810190601f1680156107815780820380516001836020036101000a031916815260200191505b50848103835287818151815260200191508051906020019080838360005b838110156107ba57808201518184015260208101905061079f565b50505050905090810190601f1680156107e75780820380516001836020036101000a031916815260200191505b50848103825286818151815260200191508051906020019080838360005b83811015610820578082015181840152602081019050610805565b50505050905090810190601f16801561084d5780820380516001836020036101000a031916815260200191505b509850505050505050505060405180910390a150505050565b7f53d845b6c86950c7b3c349118886c0a51ceaedf1ac3087baf2f869517e00dba2338383604051808473ffffffffffffffffffffffffffffffffffffffff1673ffffffffffffffffffffffffffffffffffffffff1681526020018360001916600019168152602001828152602001935050505060405180910390a15050565b7f42a0ecb4c81ed8ebaa8c71453df6b4d6020dfa110543177a2fa0fb4632ca24493385858585604051808673ffffffffffffffffffffffffffffffffffffffff1673ffffffffffffffffffffffffffffffffffffffff168152602001851515151581526020018415151515815260200183151515158152602001821515151581526020019550505050505060405180910390a1505050505600a165627a7a72305820eb4bc0d7f1b30d35d34196768bb81a06ac61ab1dbf406d18cd3c8d6d7d2dcf180029",
  "source": "pragma solidity 0.4.18;\n\ncontract EventContract {\n    address public owner;\n\n    function EventContract() public {\n        owner = msg.sender;\n    }\n\n    event UpdateInfo(address caller, string _name, string _description, string _streetAddress, uint _price);\n    event UpdateCapacity(address caller, uint _guests, uint _bed, uint _bedroom, uint _bathroom);\n    event UpdateFeature(address caller, bool _internet, bool _kitchen, bool _iron, bool _hangers);\n    event Book(address caller, bytes32 _bookDataHash, uint _startDate, uint _duration);\n    event Cancel(address caller, bytes32 _bookDataHash, uint _cancelledAt);\n    event Checkin(address caller, bytes32 _bookDataHash, uint _checkinAt);\n    event Checkout(address caller, bytes32 _bookDataHash, uint _checkoutAt);\n    event RequireResolve(address caller, bytes32 _bookDataHash, string _message);\n    \n    function updateInfo(string _name, string _description, string _streetAddress, uint _price) public {\n        UpdateInfo(msg.sender, _name, _description, _streetAddress, _price);\n    }\n    function updateCapacity(uint _guests, uint _bed, uint _bedroom, uint _bathroom) public {\n        UpdateCapacity(msg.sender, _guests, _bed, _bedroom, _bathroom);\n    }\n    function updateFeature(bool _internet, bool _kitchen, bool _iron, bool _hangers)public {\n        UpdateFeature(msg.sender, _internet, _kitchen, _iron, _hangers);\n    }\n    function book(bytes32 _bookDataHash, uint _startDate, uint _duration) public {\n        Book(msg.sender, _bookDataHash, _startDate, _duration);\n    }\n    function cancel(bytes32 _bookDataHash, uint _cancelledAt) public {\n        Cancel(msg.sender, _bookDataHash, _cancelledAt);\n    }\n    function checkin(bytes32 _bookDataHash, uint _checkinAt) public {\n        Checkin(msg.sender, _bookDataHash, _checkinAt);\n    }\n    function checkout(bytes32 _bookDataHash, uint _checkoutAt) public {\n        Checkout(msg.sender, _bookDataHash, _checkoutAt);\n    }\n    function requireResolve (bytes32 _bookDataHash, string _message) public {\n        RequireResolve(msg.sender, _bookDataHash, _message);\n    }\n\n}",
  "sourcePath": "/Users/tamnguyen/Blockathon/blockathon2017-team1/smart-contracts/contracts/EventContract.sol",
  "compiler": {
    "name": "solc",
    "version": "0.4.18+commit.9cf6e910.Emscripten.clang"
  },
  "schemaVersion": "1.0.1",
  "updatedAt": "2017-11-25T15:33:21.725Z"
}