{
  "contractName": "EventContract",
  "abi": [
    {
      "constant": false,
      "inputs": [
        {
          "name": "_type",
          "type": "string"
        },
        {
          "name": "_bockHash",
          "type": "bytes32"
        }
      ],
      "name": "logConsumer",
      "outputs": [],
      "payable": false,
      "stateMutability": "nonpayable",
      "type": "function"
    },
    {
      "constant": true,
      "inputs": [],
      "name": "owner",
      "outputs": [
        {
          "name": "",
          "type": "address"
        }
      ],
      "payable": false,
      "stateMutability": "view",
      "type": "function"
    },
    {
      "constant": false,
      "inputs": [
        {
          "name": "_type",
          "type": "string"
        }
      ],
      "name": "logHome",
      "outputs": [],
      "payable": false,
      "stateMutability": "nonpayable",
      "type": "function"
    },
    {
      "inputs": [],
      "payable": false,
      "stateMutability": "nonpayable",
      "type": "constructor"
    },
    {
      "anonymous": false,
      "inputs": [
        {
          "indexed": true,
          "name": "_from",
          "type": "address"
        },
        {
          "indexed": false,
          "name": "_type",
          "type": "string"
        }
      ],
      "name": "HomeLog",
      "type": "event"
    },
    {
      "anonymous": false,
      "inputs": [
        {
          "indexed": true,
          "name": "_from",
          "type": "address"
        },
        {
          "indexed": false,
          "name": "_type",
          "type": "string"
        },
        {
          "indexed": false,
          "name": "_bockHash",
          "type": "bytes32"
        }
      ],
      "name": "ConsumerLog",
      "type": "event"
    }
  ],
  "bytecode": "0x6060604052341561000f57600080fd5b336000806101000a81548173ffffffffffffffffffffffffffffffffffffffff021916908373ffffffffffffffffffffffffffffffffffffffff1602179055506103468061005e6000396000f300606060405260043610610057576000357c0100000000000000000000000000000000000000000000000000000000900463ffffffff1680636acdf4441461005c5780638da5cb5b146100c6578063aa6bbcda1461011b575b600080fd5b341561006757600080fd5b6100c4600480803590602001908201803590602001908080601f0160208091040260200160405190810160405280939291908181526020018383808284378201915050505050509190803560001916906020019091905050610178565b005b34156100d157600080fd5b6100d961023f565b604051808273ffffffffffffffffffffffffffffffffffffffff1673ffffffffffffffffffffffffffffffffffffffff16815260200191505060405180910390f35b341561012657600080fd5b610176600480803590602001908201803590602001908080601f01602080910402602001604051908101604052809392919081815260200183838082843782019150505050505091905050610264565b005b3373ffffffffffffffffffffffffffffffffffffffff167f61b38d0f71fd19774d88968ca33e9f0b4848d6c9b505fdd1a8d3d9b1e665ccc3838360405180806020018360001916600019168152602001828103825284818151815260200191508051906020019080838360005b838110156102005780820151818401526020810190506101e5565b50505050905090810190601f16801561022d5780820380516001836020036101000a031916815260200191505b50935050505060405180910390a25050565b6000809054906101000a900473ffffffffffffffffffffffffffffffffffffffff1681565b3373ffffffffffffffffffffffffffffffffffffffff167fecc54a1428cd92bc9c54cd73bafb160d67e4e5e1674d1c89e80d06f181d96ee0826040518080602001828103825283818151815260200191508051906020019080838360005b838110156102dd5780820151818401526020810190506102c2565b50505050905090810190601f16801561030a5780820380516001836020036101000a031916815260200191505b509250505060405180910390a2505600a165627a7a723058201fd62cd5367e55e10012e93b7ca533ea2d656490c2be7ed1331d896e979f44c40029",
  "source": "pragma solidity 0.4.18;\n\ncontract EventContract {\n    address public owner;\n\n    function EventContract() public {\n        owner = msg.sender;\n    }\n    \n    event HomeLog (\n        address indexed _from,\n        string _type\n    );\n    event ConsumerLog (\n        address indexed _from,\n        string _type,\n        bytes32 _bockHash\n    );\n    function logHome(string _type) public {\n        HomeLog(msg.sender, _type);\n    }\n    function logConsumer(string _type, bytes32 _bockHash) public {\n        ConsumerLog(msg.sender, _type, _bockHash);\n    }\n\n}",
  "sourcePath": "/Users/tamnguyen/Blockathon/blockathon2017-team1/smart-contracts/contracts/EventContract.sol",
  "compiler": {
    "name": "solc",
    "version": "0.4.18+commit.9cf6e910.Emscripten.clang"
  },
  "schemaVersion": "1.0.1",
  "updatedAt": "2017-11-25T15:07:25.343Z"
}