{
  "contractName": "Home",
  "abi": [
    {
      "constant": false,
      "inputs": [
        {
          "name": "_startDate",
          "type": "uint256"
        },
        {
          "name": "_duration",
          "type": "uint256"
        }
      ],
      "name": "book",
      "outputs": [],
      "payable": true,
      "stateMutability": "payable",
      "type": "function"
    },
    {
      "constant": false,
      "inputs": [
        {
          "name": "_bookDataHash",
          "type": "bytes32"
        }
      ],
      "name": "checkin",
      "outputs": [],
      "payable": false,
      "stateMutability": "nonpayable",
      "type": "function"
    },
    {
      "constant": false,
      "inputs": [],
      "name": "withdraw",
      "outputs": [],
      "payable": true,
      "stateMutability": "payable",
      "type": "function"
    },
    {
      "constant": true,
      "inputs": [
        {
          "name": "",
          "type": "uint256"
        }
      ],
      "name": "bookedDates",
      "outputs": [
        {
          "name": "",
          "type": "bytes32"
        }
      ],
      "payable": false,
      "stateMutability": "view",
      "type": "function"
    },
    {
      "constant": false,
      "inputs": [
        {
          "name": "_guests",
          "type": "uint256"
        },
        {
          "name": "_bed",
          "type": "uint256"
        },
        {
          "name": "_bedroom",
          "type": "uint256"
        },
        {
          "name": "_bathroom",
          "type": "uint256"
        }
      ],
      "name": "updateCapacity",
      "outputs": [],
      "payable": false,
      "stateMutability": "nonpayable",
      "type": "function"
    },
    {
      "constant": true,
      "inputs": [],
      "name": "judge",
      "outputs": [
        {
          "name": "",
          "type": "address"
        }
      ],
      "payable": false,
      "stateMutability": "view",
      "type": "function"
    },
    {
      "constant": false,
      "inputs": [
        {
          "name": "_bookDataHash",
          "type": "bytes32"
        },
        {
          "name": "_message",
          "type": "string"
        }
      ],
      "name": "requireResolve",
      "outputs": [],
      "payable": false,
      "stateMutability": "nonpayable",
      "type": "function"
    },
    {
      "constant": true,
      "inputs": [],
      "name": "getDetail",
      "outputs": [
        {
          "components": [
            {
              "name": "name",
              "type": "string"
            },
            {
              "name": "description",
              "type": "string"
            },
            {
              "name": "streetAddress",
              "type": "string"
            },
            {
              "name": "price",
              "type": "uint256"
            },
            {
              "name": "internet",
              "type": "bool"
            },
            {
              "name": "kitchen",
              "type": "bool"
            },
            {
              "name": "iron",
              "type": "bool"
            },
            {
              "name": "hangers",
              "type": "bool"
            },
            {
              "name": "guests",
              "type": "uint256"
            },
            {
              "name": "bedroom",
              "type": "uint256"
            },
            {
              "name": "bed",
              "type": "uint256"
            },
            {
              "name": "bathroom",
              "type": "uint256"
            }
          ],
          "name": "",
          "type": "tuple"
        }
      ],
      "payable": false,
      "stateMutability": "view",
      "type": "function"
    },
    {
      "constant": true,
      "inputs": [
        {
          "name": "",
          "type": "bytes32"
        }
      ],
      "name": "reviews",
      "outputs": [
        {
          "name": "createdAt",
          "type": "uint256"
        },
        {
          "name": "commenter",
          "type": "address"
        },
        {
          "name": "rate",
          "type": "uint256"
        },
        {
          "name": "message",
          "type": "string"
        },
        {
          "name": "bookDataHash",
          "type": "bytes32"
        }
      ],
      "payable": false,
      "stateMutability": "view",
      "type": "function"
    },
    {
      "constant": true,
      "inputs": [],
      "name": "owner",
      "outputs": [
        {
          "name": "",
          "type": "address"
        }
      ],
      "payable": false,
      "stateMutability": "view",
      "type": "function"
    },
    {
      "constant": true,
      "inputs": [],
      "name": "availableAmount",
      "outputs": [
        {
          "name": "",
          "type": "uint256"
        }
      ],
      "payable": false,
      "stateMutability": "view",
      "type": "function"
    },
    {
      "constant": false,
      "inputs": [
        {
          "name": "_name",
          "type": "string"
        },
        {
          "name": "_description",
          "type": "string"
        },
        {
          "name": "_streetAddress",
          "type": "string"
        },
        {
          "name": "_price",
          "type": "uint256"
        }
      ],
      "name": "updateInfo",
      "outputs": [],
      "payable": false,
      "stateMutability": "nonpayable",
      "type": "function"
    },
    {
      "constant": false,
      "inputs": [
        {
          "name": "_bookDataHash",
          "type": "bytes32"
        },
        {
          "name": "_refundRate",
          "type": "uint256"
        }
      ],
      "name": "withdrawBook",
      "outputs": [],
      "payable": true,
      "stateMutability": "payable",
      "type": "function"
    },
    {
      "constant": false,
      "inputs": [
        {
          "name": "_bookDataHash",
          "type": "bytes32"
        },
        {
          "name": "_refundRate",
          "type": "uint256"
        },
        {
          "name": "_streetAddress",
          "type": "string"
        }
      ],
      "name": "resolveConflict",
      "outputs": [],
      "payable": true,
      "stateMutability": "payable",
      "type": "function"
    },
    {
      "constant": false,
      "inputs": [
        {
          "name": "_bookDataHash",
          "type": "bytes32"
        }
      ],
      "name": "cancel",
      "outputs": [],
      "payable": true,
      "stateMutability": "payable",
      "type": "function"
    },
    {
      "constant": false,
      "inputs": [
        {
          "name": "_internet",
          "type": "bool"
        },
        {
          "name": "_kitchen",
          "type": "bool"
        },
        {
          "name": "_iron",
          "type": "bool"
        },
        {
          "name": "_hangers",
          "type": "bool"
        }
      ],
      "name": "updateFeature",
      "outputs": [],
      "payable": false,
      "stateMutability": "nonpayable",
      "type": "function"
    },
    {
      "constant": false,
      "inputs": [
        {
          "name": "_bookDataHash",
          "type": "bytes32"
        },
        {
          "name": "_rate",
          "type": "uint256"
        },
        {
          "name": "_message",
          "type": "string"
        }
      ],
      "name": "postReview",
      "outputs": [],
      "payable": false,
      "stateMutability": "nonpayable",
      "type": "function"
    },
    {
      "constant": false,
      "inputs": [
        {
          "name": "_bookDataHash",
          "type": "bytes32"
        }
      ],
      "name": "checkout",
      "outputs": [],
      "payable": false,
      "stateMutability": "nonpayable",
      "type": "function"
    },
    {
      "inputs": [
        {
          "name": "_judge",
          "type": "address"
        },
        {
          "name": "_name",
          "type": "string"
        },
        {
          "name": "_description",
          "type": "string"
        },
        {
          "name": "_streetAddress",
          "type": "string"
        },
        {
          "name": "_price",
          "type": "uint256"
        }
      ],
      "payable": false,
      "stateMutability": "nonpayable",
      "type": "constructor"
    }
  ],
  "bytecode": "0x606060405234156200001057600080fd5b6040516200357438038062003574833981016040528080519060200190919080518201919060200180518201919060200180518201919060200180519060200190919050506200005f6200035e565b85600160006101000a81548173ffffffffffffffffffffffffffffffffffffffff021916908373ffffffffffffffffffffffffffffffffffffffff160217905550336000806101000a81548173ffffffffffffffffffffffffffffffffffffffff021916908373ffffffffffffffffffffffffffffffffffffffff16021790555084816000018190525081816060018181525050838160200181905250828160400181905250806003600082015181600001908051906020019062000126929190620003e0565b50602082015181600101908051906020019062000145929190620003e0565b50604082015181600201908051906020019062000164929190620003e0565b506060820151816003015560808201518160040160006101000a81548160ff02191690831515021790555060a08201518160040160016101000a81548160ff02191690831515021790555060c08201518160040160026101000a81548160ff02191690831515021790555060e08201518160040160036101000a81548160ff02191690831515021790555061010082015181600501556101208201518160060155610140820151816007015561016082015181600801559050506064600c81905550732446d0843e57df4ac3a0bea871a6594f30183d50601160006101000a81548173ffffffffffffffffffffffffffffffffffffffff021916908373ffffffffffffffffffffffffffffffffffffffff160217905550601160009054906101000a900473ffffffffffffffffffffffffffffffffffffffff1673ffffffffffffffffffffffffffffffffffffffff1663aa6bbcda6040518163ffffffff167c01000000000000000000000000000000000000000000000000000000000281526004018080602001828103825260038152602001807f6e65770000000000000000000000000000000000000000000000000000000000815250602001915050600060405180830381600087803b15156200033d57600080fd5b6102c65a03f115156200034f57600080fd5b505050505050505050620004a3565b610180604051908101604052806200037562000467565b81526020016200038462000467565b81526020016200039362000467565b815260200160008152602001600015158152602001600015158152602001600015158152602001600015158152602001600081526020016000815260200160008152602001600081525090565b828054600181600116156101000203166002900490600052602060002090601f016020900481019282601f106200042357805160ff191683800117855562000454565b8280016001018555821562000454579182015b828111156200045357825182559160200191906001019062000436565b5b5090506200046391906200047b565b5090565b602060405190810160405280600081525090565b620004a091905b808211156200049c57600081600090555060010162000482565b5090565b90565b6130c180620004b36000396000f3006060604052600436106100fb576000357c0100000000000000000000000000000000000000000000000000000000900463ffffffff1680624ef6c6146101005780633ba26fe8146101215780633ccfd60b1461014857806340975b7b146101525780634812601d14610191578063573255f4146101cf5780635aa185cc146102245780635b2a4cff1461028e5780638475100d146102b75780638da5cb5b146103c457806391f7cfb9146104195780639b8de628146104425780639d2027e31461052e578063a00018331461054a578063c4d252f51461056f578063e7a2628c1461058b578063eb4a33cc146105d1578063f0a855bc14610644575b600080fd5b61011f600480803590602001909190803590602001909190505061066b565b005b341561012c57600080fd5b610146600480803560001916906020019091905050610b9a565b005b610150610fca565b005b341561015d57600080fd5b6101736004808035906020019091905050611093565b60405180826000191660001916815260200191505060405180910390f35b341561019c57600080fd5b6101cd60048080359060200190919080359060200190919080359060200190919080359060200190919050506110ab565b005b34156101da57600080fd5b6101e2611204565b604051808273ffffffffffffffffffffffffffffffffffffffff1673ffffffffffffffffffffffffffffffffffffffff16815260200191505060405180910390f35b341561022f57600080fd5b61028c60048080356000191690602001909190803590602001908201803590602001908080601f0160208091040260200160405190810160405280939291908181526020018383808284378201915050505050509190505061122a565b005b341561029957600080fd5b6102a161167d565b6040518082815260200191505060405180910390f35b34156102c257600080fd5b6102dc60048080356000191690602001909190505061191d565b604051808681526020018573ffffffffffffffffffffffffffffffffffffffff1673ffffffffffffffffffffffffffffffffffffffff1681526020018481526020018060200183600019166000191681526020018281038252848181546001816001161561010002031660029004815260200191508054600181600116156101000203166002900480156103b15780601f10610386576101008083540402835291602001916103b1565b820191906000526020600020905b81548152906001019060200180831161039457829003601f168201915b5050965050505050505060405180910390f35b34156103cf57600080fd5b6103d7611972565b604051808273ffffffffffffffffffffffffffffffffffffffff1673ffffffffffffffffffffffffffffffffffffffff16815260200191505060405180910390f35b341561042457600080fd5b61042c611997565b6040518082815260200191505060405180910390f35b341561044d57600080fd5b61052c600480803590602001908201803590602001908080601f0160208091040260200160405190810160405280939291908181526020018383808284378201915050505050509190803590602001908201803590602001908080601f0160208091040260200160405190810160405280939291908181526020018383808284378201915050505050509190803590602001908201803590602001908080601f0160208091040260200160405190810160405280939291908181526020018383808284378201915050505050509190803590602001909190505061199d565b005b610548600480803560001916906020019091905050611b25565b005b61056d600480803560001916906020019091908035906020019091905050611df9565b005b6105896004808035600019169060200190919050506120b1565b005b341561059657600080fd5b6105cf60048080351515906020019091908035151590602001909190803515159060200190919080351515906020019091905050612481565b005b34156105dc57600080fd5b61064260048080356000191690602001909190803590602001909190803590602001908201803590602001908080601f01602080910402602001604051908101604052809392919081815260200183838082843782019150505050505091905050612626565b005b341561064f57600080fd5b610669600480803560001916906020019091905050612a28565b005b610673612d88565b6000808360038001540234101515610b935733836000019073ffffffffffffffffffffffffffffffffffffffff16908173ffffffffffffffffffffffffffffffffffffffff16815250508483602001818152505083836040018181525050428360a001818152505060018360e001901515908115158152505034836101600181815250508260000151836020015184604001518560a001518660e00151876101600151604051808773ffffffffffffffffffffffffffffffffffffffff1673ffffffffffffffffffffffffffffffffffffffff166c0100000000000000000000000002815260140186815260200185815260200184815260200183151515157f010000000000000000000000000000000000000000000000000000000000000002815260010182815260200196505050505050506040518091039020915082600e6000846000191660001916815260200190815260200160002060008201518160000160006101000a81548173ffffffffffffffffffffffffffffffffffffffff021916908373ffffffffffffffffffffffffffffffffffffffff1602179055506020820151816001015560408201518160020155606082015181600301556080820151816004015560a0820151816005015560c0820151816006015560e08201518160070160006101000a81548160ff0219169083151502179055506101008201518160070160016101000a81548160ff0219169083151502179055506101208201518160080190805190602001906108ae929190612e0a565b50610140820151816009015561016082015181600a01559050506003600d600084600019166000191681526020019081526020016000206000820181600001908054600181600116156101000203166002900461090c929190612e8a565b5060018201816001019080546001816001161561010002031660029004610934929190612e8a565b506002820181600201908054600181600116156101000203166002900461095c929190612e8a565b50600382015481600301556004820160009054906101000a900460ff168160040160006101000a81548160ff0219169083151502179055506004820160019054906101000a900460ff168160040160016101000a81548160ff0219169083151502179055506004820160029054906101000a900460ff168160040160026101000a81548160ff0219169083151502179055506004820160039054906101000a900460ff168160040160036101000a81548160ff02191690831515021790555060058201548160050155600682015481600601556007820154816007015560088201548160080155905050600090505b83811015610aad576000600102600f6000838801815260200190815260200160002054600019161415610a9b5781600f600083880181526020019081526020016000208160001916905550610aa0565b600080fd5b8080600101915050610a4b565b601160009054906101000a900473ffffffffffffffffffffffffffffffffffffffff1673ffffffffffffffffffffffffffffffffffffffff16636acdf444836040518263ffffffff167c010000000000000000000000000000000000000000000000000000000002815260040180806020018360001916600019168152602001828103825260048152602001807f626f6f6b0000000000000000000000000000000000000000000000000000000081525060200192505050600060405180830381600087803b1515610b7e57600080fd5b6102c65a03f11515610b8f57600080fd5b5050505b5050505050565b610ba2612d88565b6000600e6000846000191660001916815260200190815260200160002061018060405190810160405290816000820160009054906101000a900473ffffffffffffffffffffffffffffffffffffffff1673ffffffffffffffffffffffffffffffffffffffff1673ffffffffffffffffffffffffffffffffffffffff1681526020016001820154815260200160028201548152602001600382015481526020016004820154815260200160058201548152602001600682015481526020016007820160009054906101000a900460ff161515151581526020016007820160019054906101000a900460ff16151515158152602001600882018054600181600116156101000203166002900480601f016020809104026020016040519081016040528092919081815260200182805460018160011615610100020316600290048015610d2d5780601f10610d0257610100808354040283529160200191610d2d565b820191906000526020600020905b815481529060010190602001808311610d1057829003601f168201915b5050505050815260200160098201548152602001600a8201548152505091508160e001511515610d5c57600080fd5b816000015173ffffffffffffffffffffffffffffffffffffffff163373ffffffffffffffffffffffffffffffffffffffff16141515610d9a57600080fd5b6103e8603c80600c6018866020015102010202029050804210151515610dbf57600080fd5b4282606001818152505081600e6000856000191660001916815260200190815260200160002060008201518160000160006101000a81548173ffffffffffffffffffffffffffffffffffffffff021916908373ffffffffffffffffffffffffffffffffffffffff1602179055506020820151816001015560408201518160020155606082015181600301556080820151816004015560a0820151816005015560c0820151816006015560e08201518160070160006101000a81548160ff0219169083151502179055506101008201518160070160016101000a81548160ff021916908315150217905550610120820151816008019080519060200190610ec6929190612e0a565b50610140820151816009015561016082015181600a0155905050601160009054906101000a900473ffffffffffffffffffffffffffffffffffffffff1673ffffffffffffffffffffffffffffffffffffffff16636acdf444846040518263ffffffff167c010000000000000000000000000000000000000000000000000000000002815260040180806020018360001916600019168152602001828103825260078152602001807f636865636b696e0000000000000000000000000000000000000000000000000081525060200192505050600060405180830381600087803b1515610fb157600080fd5b6102c65a03f11515610fc257600080fd5b505050505050565b60008060009054906101000a900473ffffffffffffffffffffffffffffffffffffffff1673ffffffffffffffffffffffffffffffffffffffff163373ffffffffffffffffffffffffffffffffffffffff16141561109057600254905060006002819055506000809054906101000a900473ffffffffffffffffffffffffffffffffffffffff1673ffffffffffffffffffffffffffffffffffffffff166108fc829081150290604051600060405180830381858888f19350505050151561108f57600080fd5b5b50565b600f6020528060005260406000206000915090505481565b6000809054906101000a900473ffffffffffffffffffffffffffffffffffffffff1673ffffffffffffffffffffffffffffffffffffffff163373ffffffffffffffffffffffffffffffffffffffff1614156111fe5783600360050181905550826003600701819055508160036006018190555080600360080181905550601160009054906101000a900473ffffffffffffffffffffffffffffffffffffffff1673ffffffffffffffffffffffffffffffffffffffff1663aa6bbcda6040518163ffffffff167c010000000000000000000000000000000000000000000000000000000002815260040180806020018281038252600f8152602001807f7570646174655f63617061636974790000000000000000000000000000000000815250602001915050600060405180830381600087803b15156111e957600080fd5b6102c65a03f115156111fa57600080fd5b5050505b50505050565b600160009054906101000a900473ffffffffffffffffffffffffffffffffffffffff1681565b611232612d88565b600e6000846000191660001916815260200190815260200160002061018060405190810160405290816000820160009054906101000a900473ffffffffffffffffffffffffffffffffffffffff1673ffffffffffffffffffffffffffffffffffffffff1673ffffffffffffffffffffffffffffffffffffffff1681526020016001820154815260200160028201548152602001600382015481526020016004820154815260200160058201548152602001600682015481526020016007820160009054906101000a900460ff161515151581526020016007820160019054906101000a900460ff16151515158152602001600882018054600181600116156101000203166002900480601f0160208091040260200160405190810160405280929190818152602001828054600181600116156101000203166002900480156113bb5780601f10611390576101008083540402835291602001916113bb565b820191906000526020600020905b81548152906001019060200180831161139e57829003601f168201915b5050505050815260200160098201548152602001600a8201548152505090508060e0015115156113ea57600080fd5b3373ffffffffffffffffffffffffffffffffffffffff16816000015173ffffffffffffffffffffffffffffffffffffffff1614151561142857600080fd5b80610100015115151561143a57600080fd5b6000816060015111151561144d57600080fd5b6000816080015114151561146057600080fd5b6001816101000190151590811515815250508181610120018190525080600e6000856000191660001916815260200190815260200160002060008201518160000160006101000a81548173ffffffffffffffffffffffffffffffffffffffff021916908373ffffffffffffffffffffffffffffffffffffffff1602179055506020820151816001015560408201518160020155606082015181600301556080820151816004015560a0820151816005015560c0820151816006015560e08201518160070160006101000a81548160ff0219169083151502179055506101008201518160070160016101000a81548160ff021916908315150217905550610120820151816008019080519060200190611579929190612e0a565b50610140820151816009015561016082015181600a0155905050601160009054906101000a900473ffffffffffffffffffffffffffffffffffffffff1673ffffffffffffffffffffffffffffffffffffffff16636acdf444846040518263ffffffff167c0100000000000000000000000000000000000000000000000000000000028152600401808060200183600019166000191681526020018281038252600c8152602001807f6e6565645f7265736f6c7665000000000000000000000000000000000000000081525060200192505050600060405180830381600087803b151561166457600080fd5b6102c65a03f1151561167557600080fd5b505050505050565b611685612f11565b60036101806040519081016040529081600082018054600181600116156101000203166002900480601f01602080910402602001604051908101604052809291908181526020018280546001816001161561010002031660029004801561172d5780601f106117025761010080835404028352916020019161172d565b820191906000526020600020905b81548152906001019060200180831161171057829003601f168201915b50505050508152602001600182018054600181600116156101000203166002900480601f0160208091040260200160405190810160405280929190818152602001828054600181600116156101000203166002900480156117cf5780601f106117a4576101008083540402835291602001916117cf565b820191906000526020600020905b8154815290600101906020018083116117b257829003601f168201915b50505050508152602001600282018054600181600116156101000203166002900480601f0160208091040260200160405190810160405280929190818152602001828054600181600116156101000203166002900480156118715780601f1061184657610100808354040283529160200191611871565b820191906000526020600020905b81548152906001019060200180831161185457829003601f168201915b50505050508152602001600382015481526020016004820160009054906101000a900460ff161515151581526020016004820160019054906101000a900460ff161515151581526020016004820160029054906101000a900460ff161515151581526020016004820160039054906101000a900460ff16151515158152602001600582015481526020016006820154815260200160078201548152602001600882015481525050905090565b60106020528060005260406000206000915090508060000154908060010160009054906101000a900473ffffffffffffffffffffffffffffffffffffffff169080600201549080600301908060040154905085565b6000809054906101000a900473ffffffffffffffffffffffffffffffffffffffff1681565b60025481565b6000809054906101000a900473ffffffffffffffffffffffffffffffffffffffff1673ffffffffffffffffffffffffffffffffffffffff163373ffffffffffffffffffffffffffffffffffffffff161415611b1f578360036000019080519060200190611a0b929190612f8d565b508060038001819055508260036001019080519060200190611a2e929190612f8d565b508160036002019080519060200190611a48929190612f8d565b50601160009054906101000a900473ffffffffffffffffffffffffffffffffffffffff1673ffffffffffffffffffffffffffffffffffffffff1663aa6bbcda6040518163ffffffff167c010000000000000000000000000000000000000000000000000000000002815260040180806020018281038252600b8152602001807f7570646174655f696e666f000000000000000000000000000000000000000000815250602001915050600060405180830381600087803b1515611b0a57600080fd5b6102c65a03f11515611b1b57600080fd5b5050505b50505050565b611b2d612d88565b6000806000809054906101000a900473ffffffffffffffffffffffffffffffffffffffff1673ffffffffffffffffffffffffffffffffffffffff163373ffffffffffffffffffffffffffffffffffffffff161415611df357600e6000856000191660001916815260200190815260200160002061018060405190810160405290816000820160009054906101000a900473ffffffffffffffffffffffffffffffffffffffff1673ffffffffffffffffffffffffffffffffffffffff1673ffffffffffffffffffffffffffffffffffffffff1681526020016001820154815260200160028201548152602001600382015481526020016004820154815260200160058201548152602001600682015481526020016007820160009054906101000a900460ff161515151581526020016007820160019054906101000a900460ff16151515158152602001600882018054600181600116156101000203166002900480601f016020809104026020016040519081016040528092919081815260200182805460018160011615610100020316600290048015611d0e5780601f10611ce357610100808354040283529160200191611d0e565b820191906000526020600020905b815481529060010190602001808311611cf157829003601f168201915b5050505050815260200160098201548152602001600a8201548152505092508260e001511515611d3d57600080fd5b826101000151151515611d4f57600080fd5b6103e8603c80600c6018600388604001518960200151010102010202029150814210151515611d7d57600080fd5b82610160015190506000836101600181815250506000809054906101000a900473ffffffffffffffffffffffffffffffffffffffff1673ffffffffffffffffffffffffffffffffffffffff166108fc829081150290604051600060405180830381858888f193505050501515611df257600080fd5b5b50505050565b611e01612d88565b6000600160009054906101000a900473ffffffffffffffffffffffffffffffffffffffff1673ffffffffffffffffffffffffffffffffffffffff163373ffffffffffffffffffffffffffffffffffffffff1614156120ab57600e6000856000191660001916815260200190815260200160002061018060405190810160405290816000820160009054906101000a900473ffffffffffffffffffffffffffffffffffffffff1673ffffffffffffffffffffffffffffffffffffffff1673ffffffffffffffffffffffffffffffffffffffff1681526020016001820154815260200160028201548152602001600382015481526020016004820154815260200160058201548152602001600682015481526020016007820160009054906101000a900460ff161515151581526020016007820160019054906101000a900460ff16151515158152602001600882018054600181600116156101000203166002900480601f016020809104026020016040519081016040528092919081815260200182805460018160011615610100020316600290048015611fe25780601f10611fb757610100808354040283529160200191611fe2565b820191906000526020600020905b815481529060010190602001808311611fc557829003601f168201915b5050505050815260200160098201548152602001600a8201548152505091508160e00151151561201157600080fd5b816101000151151561202257600080fd5b6064838361016001510281151561203557fe5b04905080826101600151036002600082825401925050819055506000826101600181815250508282610140018181525050816000015173ffffffffffffffffffffffffffffffffffffffff166108fc829081150290604051600060405180830381858888f1935050505015156120aa57600080fd5b5b50505050565b6120b9612d88565b600080600e6000856000191660001916815260200190815260200160002061018060405190810160405290816000820160009054906101000a900473ffffffffffffffffffffffffffffffffffffffff1673ffffffffffffffffffffffffffffffffffffffff1673ffffffffffffffffffffffffffffffffffffffff1681526020016001820154815260200160028201548152602001600382015481526020016004820154815260200160058201548152602001600682015481526020016007820160009054906101000a900460ff161515151581526020016007820160019054906101000a900460ff16151515158152602001600882018054600181600116156101000203166002900480601f0160208091040260200160405190810160405280929190818152602001828054600181600116156101000203166002900480156122455780601f1061221a57610100808354040283529160200191612245565b820191906000526020600020905b81548152906001019060200180831161222857829003601f168201915b5050505050815260200160098201548152602001600a8201548152505092508260e00151151561227457600080fd5b826000015173ffffffffffffffffffffffffffffffffffffffff163373ffffffffffffffffffffffffffffffffffffffff161415156122b257600080fd5b826020015142111515156122c557600080fd5b6064600c54846101600151028115156122da57fe5b0491508183610160015103600260008282540192505081905550600083610160018181525050428360c001818152505060008360e0019015159081151581525050600090505b826040015181101561235657600f6000828560200151018152602001908152602001600020600090558080600101915050612320565b3373ffffffffffffffffffffffffffffffffffffffff166108fc839081150290604051600060405180830381858888f19350505050151561239657600080fd5b601160009054906101000a900473ffffffffffffffffffffffffffffffffffffffff1673ffffffffffffffffffffffffffffffffffffffff16636acdf444856040518263ffffffff167c010000000000000000000000000000000000000000000000000000000002815260040180806020018360001916600019168152602001828103825260068152602001807f63616e636c65000000000000000000000000000000000000000000000000000081525060200192505050600060405180830381600087803b151561246757600080fd5b6102c65a03f1151561247857600080fd5b50505050505050565b6000809054906101000a900473ffffffffffffffffffffffffffffffffffffffff1673ffffffffffffffffffffffffffffffffffffffff163373ffffffffffffffffffffffffffffffffffffffff1614156126205783600360040160006101000a81548160ff02191690831515021790555082600360040160016101000a81548160ff02191690831515021790555081600360040160026101000a81548160ff02191690831515021790555080600360040160036101000a81548160ff021916908315150217905550601160009054906101000a900473ffffffffffffffffffffffffffffffffffffffff1673ffffffffffffffffffffffffffffffffffffffff1663aa6bbcda6040518163ffffffff167c010000000000000000000000000000000000000000000000000000000002815260040180806020018281038252600e8152602001807f7570646174655f66656174757265000000000000000000000000000000000000815250602001915050600060405180830381600087803b151561260b57600080fd5b6102c65a03f1151561261c57600080fd5b5050505b50505050565b61262e612d88565b61263661300d565b600e6000866000191660001916815260200190815260200160002061018060405190810160405290816000820160009054906101000a900473ffffffffffffffffffffffffffffffffffffffff1673ffffffffffffffffffffffffffffffffffffffff1673ffffffffffffffffffffffffffffffffffffffff1681526020016001820154815260200160028201548152602001600382015481526020016004820154815260200160058201548152602001600682015481526020016007820160009054906101000a900460ff161515151581526020016007820160019054906101000a900460ff16151515158152602001600882018054600181600116156101000203166002900480601f0160208091040260200160405190810160405280929190818152602001828054600181600116156101000203166002900480156127bf5780601f10612794576101008083540402835291602001916127bf565b820191906000526020600020905b8154815290600101906020018083116127a257829003601f168201915b5050505050815260200160098201548152602001600a8201548152505091508160e0015115156127ee57600080fd5b816000015173ffffffffffffffffffffffffffffffffffffffff163373ffffffffffffffffffffffffffffffffffffffff1614151561282c57600080fd5b4281600001818152505033816020019073ffffffffffffffffffffffffffffffffffffffff16908173ffffffffffffffffffffffffffffffffffffffff1681525050838160400181815250508281606001819052508481608001906000191690816000191681525050806010600087600019166000191681526020019081526020016000206000820151816000015560208201518160010160006101000a81548173ffffffffffffffffffffffffffffffffffffffff021916908373ffffffffffffffffffffffffffffffffffffffff160217905550604082015181600201556060820151816003019080519060200190612928929190612e0a565b5060808201518160040190600019169055905050601160009054906101000a900473ffffffffffffffffffffffffffffffffffffffff1673ffffffffffffffffffffffffffffffffffffffff16636acdf444866040518263ffffffff167c0100000000000000000000000000000000000000000000000000000000028152600401808060200183600019166000191681526020018281038252600d8152602001807f7570646174655f7265766965770000000000000000000000000000000000000081525060200192505050600060405180830381600087803b1515612a0d57600080fd5b6102c65a03f11515612a1e57600080fd5b5050505050505050565b612a30612d88565b6000600e6000846000191660001916815260200190815260200160002061018060405190810160405290816000820160009054906101000a900473ffffffffffffffffffffffffffffffffffffffff1673ffffffffffffffffffffffffffffffffffffffff1673ffffffffffffffffffffffffffffffffffffffff1681526020016001820154815260200160028201548152602001600382015481526020016004820154815260200160058201548152602001600682015481526020016007820160009054906101000a900460ff161515151581526020016007820160019054906101000a900460ff16151515158152602001600882018054600181600116156101000203166002900480601f016020809104026020016040519081016040528092919081815260200182805460018160011615610100020316600290048015612bbb5780601f10612b9057610100808354040283529160200191612bbb565b820191906000526020600020905b815481529060010190602001808311612b9e57829003601f168201915b5050505050815260200160098201548152602001600a8201548152505091508160e001511515612bea57600080fd5b816000015173ffffffffffffffffffffffffffffffffffffffff163373ffffffffffffffffffffffffffffffffffffffff16141515612c2857600080fd5b60008260600151111515612c3b57600080fd5b60008260800151141515612c4e57600080fd5b6103e8603c80600c6018866020015102010202029050804210151515612c7357600080fd5b42826080018181525050816101600151600260008282540192505081905550600082610160018181525050601160009054906101000a900473ffffffffffffffffffffffffffffffffffffffff1673ffffffffffffffffffffffffffffffffffffffff16636acdf444846040518263ffffffff167c010000000000000000000000000000000000000000000000000000000002815260040180806020018360001916600019168152602001828103825260088152602001807f636865636b6f757400000000000000000000000000000000000000000000000081525060200192505050600060405180830381600087803b1515612d6f57600080fd5b6102c65a03f11515612d8057600080fd5b505050505050565b61018060405190810160405280600073ffffffffffffffffffffffffffffffffffffffff168152602001600081526020016000815260200160008152602001600081526020016000815260200160008152602001600015158152602001600015158152602001612df661305c565b815260200160008152602001600081525090565b828054600181600116156101000203166002900490600052602060002090601f016020900481019282601f10612e4b57805160ff1916838001178555612e79565b82800160010185558215612e79579182015b82811115612e78578251825591602001919060010190612e5d565b5b509050612e869190613070565b5090565b828054600181600116156101000203166002900490600052602060002090601f016020900481019282601f10612ec35780548555612f00565b82800160010185558215612f0057600052602060002091601f016020900482015b82811115612eff578254825591600101919060010190612ee4565b5b509050612f0d9190613070565b5090565b61018060405190810160405280612f2661305c565b8152602001612f3361305c565b8152602001612f4061305c565b815260200160008152602001600015158152602001600015158152602001600015158152602001600015158152602001600081526020016000815260200160008152602001600081525090565b828054600181600116156101000203166002900490600052602060002090601f016020900481019282601f10612fce57805160ff1916838001178555612ffc565b82800160010185558215612ffc579182015b82811115612ffb578251825591602001919060010190612fe0565b5b5090506130099190613070565b5090565b60a06040519081016040528060008152602001600073ffffffffffffffffffffffffffffffffffffffff1681526020016000815260200161304c61305c565b8152602001600080191681525090565b602060405190810160405280600081525090565b61309291905b8082111561308e576000816000905550600101613076565b5090565b905600a165627a7a723058201572f467ee4256ba829255cdb695b8dfde6b218a1bffe702d70cd6e284c47f440029",
  "source": "pragma solidity 0.4.18;\n\nimport \"./EventContract.sol\";\n\ncontract Home {\n  address constant EVENT_ADDRESS = 0x2446d0843e57df4ac3a0bea871a6594f30183d50;\n\n  struct HomeCapacity {\n    uint guests;\n    uint bedroom;\n    uint bed;\n    uint bath;\n  }\n\n  struct HomeFeature {\n    bool internet;\n    bool kitchen;\n    bool iron;\n    bool hangers;\n  }\n\n  struct HomeData {\n    string name;\n    string description;\n    string streetAddress;\n\n    uint price; // Ether unit by wei\n\n    // feature\n    //HomeFeature feature;\n    bool internet;\n    bool kitchen;\n    bool iron;\n    bool hangers;\n\n    // capacity\n    //HomeCapacity capacity;\n    uint guests;\n    uint bedroom;\n    uint bed;\n    uint bathroom;\n  }\n\n  struct BookData {\n    address booker;\n    uint startDate; // day unit\n    uint duration;\n    uint checkinAt;\n    uint checkoutAt;\n    uint bookedAt;\n    uint cancelledAt;\n    bool isValid;\n    bool needResolve;\n    string needResolveReason;\n    uint resolveRefundRate;\n    uint sentAmount;\n  }\n\n  struct Review {\n    uint createdAt;\n    address commenter;\n    uint rate;\n    string message;\n    bytes32 bookDataHash;\n  }\n\n  address public owner;\n  address public judge;\n  uint public availableAmount;\n\n  HomeData private detail;\n  uint refundRate;\n\n  mapping (bytes32 => HomeData) private bookedHomeData;\n  mapping (bytes32 => BookData) private bookedData;\n  mapping (uint => bytes32) public bookedDates; // index by day\n  mapping (bytes32 => Review) public reviews;\n\n  // Event notification\n  EventContract eventContract;\n\n  modifier onlyJudge() {\n    if (msg.sender == judge) {\n      _;\n    }\n  }\n\n  modifier onlyOwner() {\n    if (msg.sender == owner) {\n      _;\n    }\n  }\n\n  function getDetail() public constant returns (HomeData) {\n    return detail;\n  }\n\n  function Home(address _judge, string _name, string _description, string _streetAddress, uint _price) public {\n    judge = _judge;\n    owner = msg.sender;\n\n    HomeData memory info;\n    info.name = _name;\n    info.price = _price;\n    info.description = _description;\n    info.streetAddress = _streetAddress;\n\n    detail = info;\n\n    refundRate = 100;\n\n    eventContract = EventContract(EVENT_ADDRESS);\n    eventContract.logHome(\"new\");\n  }\n\n  function updateInfo(string _name, string _description, string _streetAddress, uint _price) public onlyOwner {\n    detail.name = _name;\n    detail.price = _price;\n    detail.description = _description;\n    detail.streetAddress = _streetAddress;\n    eventContract.logHome(\"update_info\");\n  }\n\n  function updateCapacity(uint _guests, uint _bed, uint _bedroom, uint _bathroom) public onlyOwner {\n    detail.guests = _guests;\n    detail.bed = _bed;\n    detail.bedroom = _bedroom;\n    detail.bathroom = _bathroom;\n    eventContract.logHome(\"update_capacity\");\n  }\n\n  function updateFeature(bool _internet, bool _kitchen, bool _iron, bool _hangers) public onlyOwner {\n    detail.internet = _internet;\n    detail.kitchen = _kitchen;\n    detail.iron = _iron;\n    detail.hangers = _hangers;\n    eventContract.logHome(\"update_feature\");\n  }\n\n  // start date must in day unit\n  function book(uint _startDate, uint _duration) public payable {\n    if (msg.value >= detail.price * _duration) {\n      // create new book data\n      BookData memory newBookData;\n      newBookData.booker = msg.sender;\n      newBookData.startDate = _startDate;\n      newBookData.duration = _duration;\n      newBookData.bookedAt = now;\n      newBookData.isValid = true;\n      newBookData.sentAmount = msg.value;\n\n      // calculate book data hash to lookup later\n      bytes32 bookDataHash = keccak256(newBookData.booker, newBookData.startDate, newBookData.duration,\n        newBookData.bookedAt, newBookData.isValid, newBookData.sentAmount);\n      bookedData[bookDataHash] = newBookData;\n      bookedHomeData[bookDataHash] = detail;\n\n      for (uint i = 0; i < _duration; i++) {\n        if (bookedDates[_startDate + i] == 0) {\n          bookedDates[_startDate + i] = bookDataHash;\n        } else {\n          revert();\n        }\n      }\n      eventContract.logConsumer(\"book\", bookDataHash);\n    }\n  }\n\n  function cancel(bytes32 _bookDataHash) payable public {\n    BookData memory bookData = bookedData[_bookDataHash];\n\n    require(bookData.isValid);\n    require(msg.sender == bookData.booker);\n    require(now <= bookData.startDate);\n\n    uint refundAmount = bookData.sentAmount * refundRate / 100;\n    availableAmount += bookData.sentAmount - refundAmount;\n    bookData.sentAmount = 0;\n    bookData.cancelledAt = now;\n    bookData.isValid = false;\n\n    // clear booked date\n    for (uint i = 0; i < bookData.duration; i++) {\n      delete(bookedDates[bookData.startDate + i]);\n    }\n\n    msg.sender.transfer(refundAmount);\n    eventContract.logConsumer(\"cancle\", _bookDataHash);\n  }\n\n  function checkin(bytes32 _bookDataHash) public {\n    BookData memory bookData = bookedData[_bookDataHash];\n\n    require(bookData.isValid);\n    require(msg.sender == bookData.booker);\n\n    uint startDate = (bookData.startDate * 24 + 12) * 60 * 60 * 1000;\n    require(now >= startDate);\n\n    bookData.checkinAt = now;\n\n    bookedData[_bookDataHash] = bookData;\n    eventContract.logConsumer(\"checkin\", _bookDataHash);\n  }\n\n  function checkout(bytes32 _bookDataHash) public {\n    BookData memory bookData = bookedData[_bookDataHash];\n\n    require(bookData.isValid);\n    require(msg.sender == bookData.booker);\n    require(bookData.checkinAt > 0);\n    require(bookData.checkoutAt == 0);\n\n    uint startDate = (bookData.startDate * 24 + 12) * 60 * 60 * 1000;\n    require(now >= startDate);\n\n    bookData.checkoutAt = now;\n    availableAmount += bookData.sentAmount;\n    bookData.sentAmount = 0;\n    eventContract.logConsumer(\"checkout\", _bookDataHash);\n  }\n\n  function postReview(bytes32 _bookDataHash, uint _rate, string _message) public {\n    BookData memory bookData = bookedData[_bookDataHash];\n\n    require(bookData.isValid);\n    require(msg.sender == bookData.booker);\n\n    Review memory newReview;\n    newReview.createdAt = now;\n    newReview.commenter = msg.sender;\n    newReview.rate = _rate;\n    newReview.message = _message;\n    newReview.bookDataHash = _bookDataHash;\n\n    reviews[_bookDataHash] = newReview;\n    eventContract.logConsumer(\"update_review\", _bookDataHash);\n  }\n\n  function requireResolve(bytes32 _bookDataHash, string _message) public {\n    BookData memory bookData = bookedData[_bookDataHash];\n\n    require(bookData.isValid);\n    require(bookData.booker == msg.sender);\n    require(!bookData.needResolve);\n    require(bookData.checkinAt > 0);\n    require(bookData.checkoutAt == 0);\n\n    bookData.needResolve = true;\n    bookData.needResolveReason = _message;\n\n    bookedData[_bookDataHash] = bookData;\n    eventContract.logConsumer(\"need_resolve\", _bookDataHash);\n  }\n\n  function resolveConflict(bytes32 _bookDataHash, uint _refundRate) public onlyJudge payable {\n    BookData memory bookData = bookedData[_bookDataHash];\n\n    require(bookData.isValid);\n    require(bookData.needResolve);\n\n    uint refundAmount = bookData.sentAmount * _refundRate / 100;\n    availableAmount += bookData.sentAmount - refundAmount;\n    bookData.sentAmount = 0;\n    bookData.resolveRefundRate = _refundRate;\n\n    bookData.booker.transfer(refundAmount);\n    \n  }\n\n  function withdraw() public onlyOwner payable {\n    uint amount = availableAmount;\n    availableAmount = 0;\n    owner.transfer(amount);\n  }\n\n  function withdrawBook(bytes32 _bookDataHash) public onlyOwner payable {\n    BookData memory bookData = bookedData[_bookDataHash];\n\n    require(bookData.isValid);\n    require(!bookData.needResolve);\n\n    uint canClaimDate = ((bookData.startDate + bookData.duration + 3) * 24 + 12) * 60 * 60 * 1000;\n    require(now >= canClaimDate);\n\n    uint amount = bookData.sentAmount;\n    bookData.sentAmount = 0;\n    owner.transfer(amount);\n  }\n}\n",
  "sourcePath": "/Users/tamnguyen/Blockathon/blockathon2017-team1/smart-contracts/contracts/Home.sol",
  "compiler": {
    "name": "solc",
    "version": "0.4.18+commit.9cf6e910.Emscripten.clang"
  },
  "schemaVersion": "1.0.1",
  "updatedAt": "2017-11-25T15:03:28.368Z"
}