{
  "contractName": "Home",
  "abi": [
    {
      "constant": false,
      "inputs": [
        {
          "name": "_startDate",
          "type": "uint256"
        },
        {
          "name": "_duration",
          "type": "uint256"
        }
      ],
      "name": "book",
      "outputs": [],
      "payable": true,
      "stateMutability": "payable",
      "type": "function"
    },
    {
      "constant": false,
      "inputs": [
        {
          "name": "_bookDataHash",
          "type": "bytes32"
        }
      ],
      "name": "checkin",
      "outputs": [],
      "payable": false,
      "stateMutability": "nonpayable",
      "type": "function"
    },
    {
      "constant": false,
      "inputs": [],
      "name": "withdraw",
      "outputs": [],
      "payable": true,
      "stateMutability": "payable",
      "type": "function"
    },
    {
      "constant": true,
      "inputs": [
        {
          "name": "",
          "type": "uint256"
        }
      ],
      "name": "bookedDates",
      "outputs": [
        {
          "name": "",
          "type": "bytes32"
        }
      ],
      "payable": false,
      "stateMutability": "view",
      "type": "function"
    },
    {
      "constant": false,
      "inputs": [
        {
          "name": "_guests",
          "type": "uint256"
        },
        {
          "name": "_bed",
          "type": "uint256"
        },
        {
          "name": "_bedroom",
          "type": "uint256"
        },
        {
          "name": "_bathroom",
          "type": "uint256"
        }
      ],
      "name": "updateCapacity",
      "outputs": [],
      "payable": false,
      "stateMutability": "nonpayable",
      "type": "function"
    },
    {
      "constant": true,
      "inputs": [],
      "name": "judge",
      "outputs": [
        {
          "name": "",
          "type": "address"
        }
      ],
      "payable": false,
      "stateMutability": "view",
      "type": "function"
    },
    {
      "constant": false,
      "inputs": [
        {
          "name": "_bookDataHash",
          "type": "bytes32"
        },
        {
          "name": "_message",
          "type": "string"
        }
      ],
      "name": "requireResolve",
      "outputs": [],
      "payable": false,
      "stateMutability": "nonpayable",
      "type": "function"
    },
    {
      "constant": true,
      "inputs": [],
      "name": "getDetail",
      "outputs": [
        {
          "components": [
            {
              "name": "name",
              "type": "string"
            },
            {
              "name": "description",
              "type": "string"
            },
            {
              "name": "streetAddress",
              "type": "string"
            },
            {
              "name": "price",
              "type": "uint256"
            },
            {
              "name": "internet",
              "type": "bool"
            },
            {
              "name": "kitchen",
              "type": "bool"
            },
            {
              "name": "iron",
              "type": "bool"
            },
            {
              "name": "hangers",
              "type": "bool"
            },
            {
              "name": "guests",
              "type": "uint256"
            },
            {
              "name": "bedroom",
              "type": "uint256"
            },
            {
              "name": "bed",
              "type": "uint256"
            },
            {
              "name": "bathroom",
              "type": "uint256"
            }
          ],
          "name": "",
          "type": "tuple"
        }
      ],
      "payable": false,
      "stateMutability": "view",
      "type": "function"
    },
    {
      "constant": true,
      "inputs": [
        {
          "name": "",
          "type": "bytes32"
        }
      ],
      "name": "reviews",
      "outputs": [
        {
          "name": "createdAt",
          "type": "uint256"
        },
        {
          "name": "commenter",
          "type": "address"
        },
        {
          "name": "rate",
          "type": "uint256"
        },
        {
          "name": "message",
          "type": "string"
        },
        {
          "name": "bookDataHash",
          "type": "bytes32"
        }
      ],
      "payable": false,
      "stateMutability": "view",
      "type": "function"
    },
    {
      "constant": true,
      "inputs": [],
      "name": "owner",
      "outputs": [
        {
          "name": "",
          "type": "address"
        }
      ],
      "payable": false,
      "stateMutability": "view",
      "type": "function"
    },
    {
      "constant": true,
      "inputs": [],
      "name": "availableAmount",
      "outputs": [
        {
          "name": "",
          "type": "uint256"
        }
      ],
      "payable": false,
      "stateMutability": "view",
      "type": "function"
    },
    {
      "constant": false,
      "inputs": [
        {
          "name": "_name",
          "type": "string"
        },
        {
          "name": "_description",
          "type": "string"
        },
        {
          "name": "_streetAddress",
          "type": "string"
        },
        {
          "name": "_price",
          "type": "uint256"
        }
      ],
      "name": "updateInfo",
      "outputs": [],
      "payable": false,
      "stateMutability": "nonpayable",
      "type": "function"
    },
    {
      "constant": false,
      "inputs": [
        {
          "name": "_bookDataHash",
          "type": "bytes32"
        }
      ],
      "name": "withdrawBook",
      "outputs": [],
      "payable": true,
      "stateMutability": "payable",
      "type": "function"
    },
    {
      "constant": false,
      "inputs": [
        {
          "name": "_bookDataHash",
          "type": "bytes32"
        },
        {
          "name": "_refundRate",
          "type": "uint256"
        }
      ],
      "name": "resolveConflict",
      "outputs": [],
      "payable": true,
      "stateMutability": "payable",
      "type": "function"
    },
    {
      "constant": false,
      "inputs": [
        {
          "name": "_bookDataHash",
          "type": "bytes32"
        }
      ],
      "name": "cancel",
      "outputs": [],
      "payable": true,
      "stateMutability": "payable",
      "type": "function"
    },
    {
      "constant": false,
      "inputs": [
        {
          "name": "_internet",
          "type": "bool"
        },
        {
          "name": "_kitchen",
          "type": "bool"
        },
        {
          "name": "_iron",
          "type": "bool"
        },
        {
          "name": "_hangers",
          "type": "bool"
        }
      ],
      "name": "updateFeature",
      "outputs": [],
      "payable": false,
      "stateMutability": "nonpayable",
      "type": "function"
    },
    {
      "constant": false,
      "inputs": [
        {
          "name": "_bookDataHash",
          "type": "bytes32"
        },
        {
          "name": "_rate",
          "type": "uint256"
        },
        {
          "name": "_message",
          "type": "string"
        }
      ],
      "name": "postReview",
      "outputs": [],
      "payable": false,
      "stateMutability": "nonpayable",
      "type": "function"
    },
    {
      "constant": false,
      "inputs": [
        {
          "name": "_bookDataHash",
          "type": "bytes32"
        }
      ],
      "name": "checkout",
      "outputs": [],
      "payable": false,
      "stateMutability": "nonpayable",
      "type": "function"
    },
    {
      "inputs": [
        {
          "name": "_judge",
          "type": "address"
        },
        {
          "name": "_name",
          "type": "string"
        },
        {
          "name": "_description",
          "type": "string"
        },
        {
          "name": "_streetAddress",
          "type": "string"
        },
        {
          "name": "_price",
          "type": "uint256"
        }
      ],
      "payable": false,
      "stateMutability": "nonpayable",
      "type": "constructor"
    }
  ],
  "bytecode": "0x606060405234156200001057600080fd5b6040516200343038038062003430833981016040528080519060200190919080518201919060200180518201919060200180518201919060200180519060200190919050506200005f62000287565b85600160006101000a81548173ffffffffffffffffffffffffffffffffffffffff021916908373ffffffffffffffffffffffffffffffffffffffff160217905550336000806101000a81548173ffffffffffffffffffffffffffffffffffffffff021916908373ffffffffffffffffffffffffffffffffffffffff1602179055508481600001819052508181606001818152505083816020018190525082816040018190525080600360008201518160000190805190602001906200012692919062000309565b5060208201518160010190805190602001906200014592919062000309565b5060408201518160020190805190602001906200016492919062000309565b506060820151816003015560808201518160040160006101000a81548160ff02191690831515021790555060a08201518160040160016101000a81548160ff02191690831515021790555060c08201518160040160026101000a81548160ff02191690831515021790555060e08201518160040160036101000a81548160ff02191690831515021790555061010082015181600501556101208201518160060155610140820151816007015561016082015181600801559050506064600c819055507301a1f5f6dc5ab93a2e3c1af3ca85e768daa228d9601160006101000a81548173ffffffffffffffffffffffffffffffffffffffff021916908373ffffffffffffffffffffffffffffffffffffffff160217905550505050505050620003cc565b610180604051908101604052806200029e62000390565b8152602001620002ad62000390565b8152602001620002bc62000390565b815260200160008152602001600015158152602001600015158152602001600015158152602001600015158152602001600081526020016000815260200160008152602001600081525090565b828054600181600116156101000203166002900490600052602060002090601f016020900481019282601f106200034c57805160ff19168380011785556200037d565b828001600101855582156200037d579182015b828111156200037c5782518255916020019190600101906200035f565b5b5090506200038c9190620003a4565b5090565b602060405190810160405280600081525090565b620003c991905b80821115620003c5576000816000905550600101620003ab565b5090565b90565b61305480620003dc6000396000f3006060604052600436106100fb576000357c0100000000000000000000000000000000000000000000000000000000900463ffffffff1680624ef6c6146101005780633ba26fe8146101215780633ccfd60b1461014857806340975b7b146101525780634812601d14610191578063573255f4146101cf5780635aa185cc146102245780635b2a4cff1461028e5780638475100d146102b75780638da5cb5b146103c457806391f7cfb9146104195780639b8de628146104425780639d2027e31461052e578063a00018331461054a578063c4d252f51461056f578063e7a2628c1461058b578063eb4a33cc146105d1578063f0a855bc14610644575b600080fd5b61011f600480803590602001909190803590602001909190505061066b565b005b341561012c57600080fd5b610146600480803560001916906020019091905050610b71565b005b610150610f74565b005b341561015d57600080fd5b610173600480803590602001909190505061103d565b60405180826000191660001916815260200191505060405180910390f35b341561019c57600080fd5b6101cd6004808035906020019091908035906020019091908035906020019091908035906020019091905050611055565b005b34156101da57600080fd5b6101e2611195565b604051808273ffffffffffffffffffffffffffffffffffffffff1673ffffffffffffffffffffffffffffffffffffffff16815260200191505060405180910390f35b341561022f57600080fd5b61028c60048080356000191690602001909190803590602001908201803590602001908080601f016020809104026020016040519081016040528093929190818152602001838380828437820191505050505050919050506111bb565b005b341561029957600080fd5b6102a1611642565b6040518082815260200191505060405180910390f35b34156102c257600080fd5b6102dc6004808035600019169060200190919050506118e2565b604051808681526020018573ffffffffffffffffffffffffffffffffffffffff1673ffffffffffffffffffffffffffffffffffffffff1681526020018481526020018060200183600019166000191681526020018281038252848181546001816001161561010002031660029004815260200191508054600181600116156101000203166002900480156103b15780601f10610386576101008083540402835291602001916103b1565b820191906000526020600020905b81548152906001019060200180831161039457829003601f168201915b5050965050505050505060405180910390f35b34156103cf57600080fd5b6103d7611937565b604051808273ffffffffffffffffffffffffffffffffffffffff1673ffffffffffffffffffffffffffffffffffffffff16815260200191505060405180910390f35b341561042457600080fd5b61042c61195c565b6040518082815260200191505060405180910390f35b341561044d57600080fd5b61052c600480803590602001908201803590602001908080601f0160208091040260200160405190810160405280939291908181526020018383808284378201915050505050509190803590602001908201803590602001908080601f0160208091040260200160405190810160405280939291908181526020018383808284378201915050505050509190803590602001908201803590602001908080601f01602080910402602001604051908101604052809392919081815260200183838082843782019150505050505091908035906020019091905050611962565b005b610548600480803560001916906020019091905050611c00565b005b61056d600480803560001916906020019091908035906020019091905050611ed4565b005b61058960048080356000191690602001909190505061218c565b005b341561059657600080fd5b6105cf6004808035151590602001909190803515159060200190919080351515906020019091908035151590602001909190505061252f565b005b34156105dc57600080fd5b61064260048080356000191690602001909190803590602001909190803590602001908201803590602001908080601f016020809104026020016040519081016040528093929190818152602001838380828437820191505050505050919050506126cb565b005b341561064f57600080fd5b6106696004808035600019169060200190919050506129e8565b005b610673612d1b565b6000808360038001540234101515610b6a5733836000019073ffffffffffffffffffffffffffffffffffffffff16908173ffffffffffffffffffffffffffffffffffffffff16815250508483602001818152505083836040018181525050428360a001818152505060018360e001901515908115158152505034836101600181815250508260000151836020015184604001518560a001518660e00151876101600151604051808773ffffffffffffffffffffffffffffffffffffffff1673ffffffffffffffffffffffffffffffffffffffff166c0100000000000000000000000002815260140186815260200185815260200184815260200183151515157f010000000000000000000000000000000000000000000000000000000000000002815260010182815260200196505050505050506040518091039020915082600e6000846000191660001916815260200190815260200160002060008201518160000160006101000a81548173ffffffffffffffffffffffffffffffffffffffff021916908373ffffffffffffffffffffffffffffffffffffffff1602179055506020820151816001015560408201518160020155606082015181600301556080820151816004015560a0820151816005015560c0820151816006015560e08201518160070160006101000a81548160ff0219169083151502179055506101008201518160070160016101000a81548160ff0219169083151502179055506101208201518160080190805190602001906108ae929190612d9d565b50610140820151816009015561016082015181600a01559050506003600d600084600019166000191681526020019081526020016000206000820181600001908054600181600116156101000203166002900461090c929190612e1d565b5060018201816001019080546001816001161561010002031660029004610934929190612e1d565b506002820181600201908054600181600116156101000203166002900461095c929190612e1d565b50600382015481600301556004820160009054906101000a900460ff168160040160006101000a81548160ff0219169083151502179055506004820160019054906101000a900460ff168160040160016101000a81548160ff0219169083151502179055506004820160029054906101000a900460ff168160040160026101000a81548160ff0219169083151502179055506004820160039054906101000a900460ff168160040160036101000a81548160ff02191690831515021790555060058201548160050155600682015481600601556007820154816007015560088201548160080155905050600090505b83811015610aad576000600102600f6000838801815260200190815260200160002054600019161415610a9b5781600f600083880181526020019081526020016000208160001916905550610aa0565b600080fd5b8080600101915050610a4b565b601160009054906101000a900473ffffffffffffffffffffffffffffffffffffffff1673ffffffffffffffffffffffffffffffffffffffff16632da8ea798387876040518463ffffffff167c01000000000000000000000000000000000000000000000000000000000281526004018084600019166000191681526020018381526020018281526020019350505050600060405180830381600087803b1515610b5557600080fd5b6102c65a03f11515610b6657600080fd5b5050505b5050505050565b610b79612d1b565b6000600e6000846000191660001916815260200190815260200160002061018060405190810160405290816000820160009054906101000a900473ffffffffffffffffffffffffffffffffffffffff1673ffffffffffffffffffffffffffffffffffffffff1673ffffffffffffffffffffffffffffffffffffffff1681526020016001820154815260200160028201548152602001600382015481526020016004820154815260200160058201548152602001600682015481526020016007820160009054906101000a900460ff161515151581526020016007820160019054906101000a900460ff16151515158152602001600882018054600181600116156101000203166002900480601f016020809104026020016040519081016040528092919081815260200182805460018160011615610100020316600290048015610d045780601f10610cd957610100808354040283529160200191610d04565b820191906000526020600020905b815481529060010190602001808311610ce757829003601f168201915b5050505050815260200160098201548152602001600a8201548152505091508160e001511515610d3357600080fd5b816000015173ffffffffffffffffffffffffffffffffffffffff163373ffffffffffffffffffffffffffffffffffffffff16141515610d7157600080fd5b6103e8603c80600c6018866020015102010202029050804210151515610d9657600080fd5b4282606001818152505081600e6000856000191660001916815260200190815260200160002060008201518160000160006101000a81548173ffffffffffffffffffffffffffffffffffffffff021916908373ffffffffffffffffffffffffffffffffffffffff1602179055506020820151816001015560408201518160020155606082015181600301556080820151816004015560a0820151816005015560c0820151816006015560e08201518160070160006101000a81548160ff0219169083151502179055506101008201518160070160016101000a81548160ff021916908315150217905550610120820151816008019080519060200190610e9d929190612d9d565b50610140820151816009015561016082015181600a0155905050601160009054906101000a900473ffffffffffffffffffffffffffffffffffffffff1673ffffffffffffffffffffffffffffffffffffffff1663b2a59f308484606001516040518363ffffffff167c010000000000000000000000000000000000000000000000000000000002815260040180836000191660001916815260200182815260200192505050600060405180830381600087803b1515610f5b57600080fd5b6102c65a03f11515610f6c57600080fd5b505050505050565b60008060009054906101000a900473ffffffffffffffffffffffffffffffffffffffff1673ffffffffffffffffffffffffffffffffffffffff163373ffffffffffffffffffffffffffffffffffffffff16141561103a57600254905060006002819055506000809054906101000a900473ffffffffffffffffffffffffffffffffffffffff1673ffffffffffffffffffffffffffffffffffffffff166108fc829081150290604051600060405180830381858888f19350505050151561103957600080fd5b5b50565b600f6020528060005260406000206000915090505481565b6000809054906101000a900473ffffffffffffffffffffffffffffffffffffffff1673ffffffffffffffffffffffffffffffffffffffff163373ffffffffffffffffffffffffffffffffffffffff16141561118f5783600360050181905550826003600701819055508160036006018190555080600360080181905550601160009054906101000a900473ffffffffffffffffffffffffffffffffffffffff1673ffffffffffffffffffffffffffffffffffffffff16634812601d858585856040518563ffffffff167c010000000000000000000000000000000000000000000000000000000002815260040180858152602001848152602001838152602001828152602001945050505050600060405180830381600087803b151561117a57600080fd5b6102c65a03f1151561118b57600080fd5b5050505b50505050565b600160009054906101000a900473ffffffffffffffffffffffffffffffffffffffff1681565b6111c3612d1b565b600e6000846000191660001916815260200190815260200160002061018060405190810160405290816000820160009054906101000a900473ffffffffffffffffffffffffffffffffffffffff1673ffffffffffffffffffffffffffffffffffffffff1673ffffffffffffffffffffffffffffffffffffffff1681526020016001820154815260200160028201548152602001600382015481526020016004820154815260200160058201548152602001600682015481526020016007820160009054906101000a900460ff161515151581526020016007820160019054906101000a900460ff16151515158152602001600882018054600181600116156101000203166002900480601f01602080910402602001604051908101604052809291908181526020018280546001816001161561010002031660029004801561134c5780601f106113215761010080835404028352916020019161134c565b820191906000526020600020905b81548152906001019060200180831161132f57829003601f168201915b5050505050815260200160098201548152602001600a8201548152505090508060e00151151561137b57600080fd5b3373ffffffffffffffffffffffffffffffffffffffff16816000015173ffffffffffffffffffffffffffffffffffffffff161415156113b957600080fd5b8061010001511515156113cb57600080fd5b600081606001511115156113de57600080fd5b600081608001511415156113f157600080fd5b6001816101000190151590811515815250508181610120018190525080600e6000856000191660001916815260200190815260200160002060008201518160000160006101000a81548173ffffffffffffffffffffffffffffffffffffffff021916908373ffffffffffffffffffffffffffffffffffffffff1602179055506020820151816001015560408201518160020155606082015181600301556080820151816004015560a0820151816005015560c0820151816006015560e08201518160070160006101000a81548160ff0219169083151502179055506101008201518160070160016101000a81548160ff02191690831515021790555061012082015181600801908051906020019061150a929190612d9d565b50610140820151816009015561016082015181600a0155905050601160009054906101000a900473ffffffffffffffffffffffffffffffffffffffff1673ffffffffffffffffffffffffffffffffffffffff16635aa185cc84846040518363ffffffff167c010000000000000000000000000000000000000000000000000000000002815260040180836000191660001916815260200180602001828103825283818151815260200191508051906020019080838360005b838110156115dd5780820151818401526020810190506115c2565b50505050905090810190601f16801561160a5780820380516001836020036101000a031916815260200191505b509350505050600060405180830381600087803b151561162957600080fd5b6102c65a03f1151561163a57600080fd5b505050505050565b61164a612ea4565b60036101806040519081016040529081600082018054600181600116156101000203166002900480601f0160208091040260200160405190810160405280929190818152602001828054600181600116156101000203166002900480156116f25780601f106116c7576101008083540402835291602001916116f2565b820191906000526020600020905b8154815290600101906020018083116116d557829003601f168201915b50505050508152602001600182018054600181600116156101000203166002900480601f0160208091040260200160405190810160405280929190818152602001828054600181600116156101000203166002900480156117945780601f1061176957610100808354040283529160200191611794565b820191906000526020600020905b81548152906001019060200180831161177757829003601f168201915b50505050508152602001600282018054600181600116156101000203166002900480601f0160208091040260200160405190810160405280929190818152602001828054600181600116156101000203166002900480156118365780601f1061180b57610100808354040283529160200191611836565b820191906000526020600020905b81548152906001019060200180831161181957829003601f168201915b50505050508152602001600382015481526020016004820160009054906101000a900460ff161515151581526020016004820160019054906101000a900460ff161515151581526020016004820160029054906101000a900460ff161515151581526020016004820160039054906101000a900460ff16151515158152602001600582015481526020016006820154815260200160078201548152602001600882015481525050905090565b60106020528060005260406000206000915090508060000154908060010160009054906101000a900473ffffffffffffffffffffffffffffffffffffffff169080600201549080600301908060040154905085565b6000809054906101000a900473ffffffffffffffffffffffffffffffffffffffff1681565b60025481565b6000809054906101000a900473ffffffffffffffffffffffffffffffffffffffff1673ffffffffffffffffffffffffffffffffffffffff163373ffffffffffffffffffffffffffffffffffffffff161415611bfa5783600360000190805190602001906119d0929190612f20565b5080600380018190555082600360010190805190602001906119f3929190612f20565b508160036002019080519060200190611a0d929190612f20565b50601160009054906101000a900473ffffffffffffffffffffffffffffffffffffffff1673ffffffffffffffffffffffffffffffffffffffff16639b8de628858585856040518563ffffffff167c010000000000000000000000000000000000000000000000000000000002815260040180806020018060200180602001858152602001848103845288818151815260200191508051906020019080838360005b83811015611ac9578082015181840152602081019050611aae565b50505050905090810190601f168015611af65780820380516001836020036101000a031916815260200191505b50848103835287818151815260200191508051906020019080838360005b83811015611b2f578082015181840152602081019050611b14565b50505050905090810190601f168015611b5c5780820380516001836020036101000a031916815260200191505b50848103825286818151815260200191508051906020019080838360005b83811015611b95578082015181840152602081019050611b7a565b50505050905090810190601f168015611bc25780820380516001836020036101000a031916815260200191505b50975050505050505050600060405180830381600087803b1515611be557600080fd5b6102c65a03f11515611bf657600080fd5b5050505b50505050565b611c08612d1b565b6000806000809054906101000a900473ffffffffffffffffffffffffffffffffffffffff1673ffffffffffffffffffffffffffffffffffffffff163373ffffffffffffffffffffffffffffffffffffffff161415611ece57600e6000856000191660001916815260200190815260200160002061018060405190810160405290816000820160009054906101000a900473ffffffffffffffffffffffffffffffffffffffff1673ffffffffffffffffffffffffffffffffffffffff1673ffffffffffffffffffffffffffffffffffffffff1681526020016001820154815260200160028201548152602001600382015481526020016004820154815260200160058201548152602001600682015481526020016007820160009054906101000a900460ff161515151581526020016007820160019054906101000a900460ff16151515158152602001600882018054600181600116156101000203166002900480601f016020809104026020016040519081016040528092919081815260200182805460018160011615610100020316600290048015611de95780601f10611dbe57610100808354040283529160200191611de9565b820191906000526020600020905b815481529060010190602001808311611dcc57829003601f168201915b5050505050815260200160098201548152602001600a8201548152505092508260e001511515611e1857600080fd5b826101000151151515611e2a57600080fd5b6103e8603c80600c6018600388604001518960200151010102010202029150814210151515611e5857600080fd5b82610160015190506000836101600181815250506000809054906101000a900473ffffffffffffffffffffffffffffffffffffffff1673ffffffffffffffffffffffffffffffffffffffff166108fc829081150290604051600060405180830381858888f193505050501515611ecd57600080fd5b5b50505050565b611edc612d1b565b6000600160009054906101000a900473ffffffffffffffffffffffffffffffffffffffff1673ffffffffffffffffffffffffffffffffffffffff163373ffffffffffffffffffffffffffffffffffffffff16141561218657600e6000856000191660001916815260200190815260200160002061018060405190810160405290816000820160009054906101000a900473ffffffffffffffffffffffffffffffffffffffff1673ffffffffffffffffffffffffffffffffffffffff1673ffffffffffffffffffffffffffffffffffffffff1681526020016001820154815260200160028201548152602001600382015481526020016004820154815260200160058201548152602001600682015481526020016007820160009054906101000a900460ff161515151581526020016007820160019054906101000a900460ff16151515158152602001600882018054600181600116156101000203166002900480601f0160208091040260200160405190810160405280929190818152602001828054600181600116156101000203166002900480156120bd5780601f10612092576101008083540402835291602001916120bd565b820191906000526020600020905b8154815290600101906020018083116120a057829003601f168201915b5050505050815260200160098201548152602001600a8201548152505091508160e0015115156120ec57600080fd5b81610100015115156120fd57600080fd5b6064838361016001510281151561211057fe5b04905080826101600151036002600082825401925050819055506000826101600181815250508282610140018181525050816000015173ffffffffffffffffffffffffffffffffffffffff166108fc829081150290604051600060405180830381858888f19350505050151561218557600080fd5b5b50505050565b612194612d1b565b600080600e6000856000191660001916815260200190815260200160002061018060405190810160405290816000820160009054906101000a900473ffffffffffffffffffffffffffffffffffffffff1673ffffffffffffffffffffffffffffffffffffffff1673ffffffffffffffffffffffffffffffffffffffff1681526020016001820154815260200160028201548152602001600382015481526020016004820154815260200160058201548152602001600682015481526020016007820160009054906101000a900460ff161515151581526020016007820160019054906101000a900460ff16151515158152602001600882018054600181600116156101000203166002900480601f0160208091040260200160405190810160405280929190818152602001828054600181600116156101000203166002900480156123205780601f106122f557610100808354040283529160200191612320565b820191906000526020600020905b81548152906001019060200180831161230357829003601f168201915b5050505050815260200160098201548152602001600a8201548152505092508260e00151151561234f57600080fd5b826000015173ffffffffffffffffffffffffffffffffffffffff163373ffffffffffffffffffffffffffffffffffffffff1614151561238d57600080fd5b826020015142111515156123a057600080fd5b6064600c54846101600151028115156123b557fe5b0491508183610160015103600260008282540192505081905550600083610160018181525050428360c001818152505060008360e0019015159081151581525050600090505b826040015181101561243157600f60008285602001510181526020019081526020016000206000905580806001019150506123fb565b3373ffffffffffffffffffffffffffffffffffffffff166108fc839081150290604051600060405180830381858888f19350505050151561247157600080fd5b601160009054906101000a900473ffffffffffffffffffffffffffffffffffffffff1673ffffffffffffffffffffffffffffffffffffffff1663069455a0858560c001516040518363ffffffff167c010000000000000000000000000000000000000000000000000000000002815260040180836000191660001916815260200182815260200192505050600060405180830381600087803b151561251557600080fd5b6102c65a03f1151561252657600080fd5b50505050505050565b6000809054906101000a900473ffffffffffffffffffffffffffffffffffffffff1673ffffffffffffffffffffffffffffffffffffffff163373ffffffffffffffffffffffffffffffffffffffff1614156126c55783600360040160006101000a81548160ff02191690831515021790555082600360040160016101000a81548160ff02191690831515021790555081600360040160026101000a81548160ff02191690831515021790555080600360040160036101000a81548160ff021916908315150217905550601160009054906101000a900473ffffffffffffffffffffffffffffffffffffffff1673ffffffffffffffffffffffffffffffffffffffff1663e7a2628c858585856040518563ffffffff167c01000000000000000000000000000000000000000000000000000000000281526004018085151515158152602001841515151581526020018315151515815260200182151515158152602001945050505050600060405180830381600087803b15156126b057600080fd5b6102c65a03f115156126c157600080fd5b5050505b50505050565b6126d3612d1b565b6126db612fa0565b600e6000866000191660001916815260200190815260200160002061018060405190810160405290816000820160009054906101000a900473ffffffffffffffffffffffffffffffffffffffff1673ffffffffffffffffffffffffffffffffffffffff1673ffffffffffffffffffffffffffffffffffffffff1681526020016001820154815260200160028201548152602001600382015481526020016004820154815260200160058201548152602001600682015481526020016007820160009054906101000a900460ff161515151581526020016007820160019054906101000a900460ff16151515158152602001600882018054600181600116156101000203166002900480601f0160208091040260200160405190810160405280929190818152602001828054600181600116156101000203166002900480156128645780601f1061283957610100808354040283529160200191612864565b820191906000526020600020905b81548152906001019060200180831161284757829003601f168201915b5050505050815260200160098201548152602001600a8201548152505091508160e00151151561289357600080fd5b816000015173ffffffffffffffffffffffffffffffffffffffff163373ffffffffffffffffffffffffffffffffffffffff161415156128d157600080fd5b4281600001818152505033816020019073ffffffffffffffffffffffffffffffffffffffff16908173ffffffffffffffffffffffffffffffffffffffff1681525050838160400181815250508281606001819052508481608001906000191690816000191681525050806010600087600019166000191681526020019081526020016000206000820151816000015560208201518160010160006101000a81548173ffffffffffffffffffffffffffffffffffffffff021916908373ffffffffffffffffffffffffffffffffffffffff1602179055506040820151816002015560608201518160030190805190602001906129cd929190612d9d565b50608082015181600401906000191690559050505050505050565b6129f0612d1b565b6000600e6000846000191660001916815260200190815260200160002061018060405190810160405290816000820160009054906101000a900473ffffffffffffffffffffffffffffffffffffffff1673ffffffffffffffffffffffffffffffffffffffff1673ffffffffffffffffffffffffffffffffffffffff1681526020016001820154815260200160028201548152602001600382015481526020016004820154815260200160058201548152602001600682015481526020016007820160009054906101000a900460ff161515151581526020016007820160019054906101000a900460ff16151515158152602001600882018054600181600116156101000203166002900480601f016020809104026020016040519081016040528092919081815260200182805460018160011615610100020316600290048015612b7b5780601f10612b5057610100808354040283529160200191612b7b565b820191906000526020600020905b815481529060010190602001808311612b5e57829003601f168201915b5050505050815260200160098201548152602001600a8201548152505091508160e001511515612baa57600080fd5b816000015173ffffffffffffffffffffffffffffffffffffffff163373ffffffffffffffffffffffffffffffffffffffff16141515612be857600080fd5b60008260600151111515612bfb57600080fd5b60008260800151141515612c0e57600080fd5b6103e8603c80600c6018866020015102010202029050804210151515612c3357600080fd5b42826080018181525050816101600151600260008282540192505081905550600082610160018181525050601160009054906101000a900473ffffffffffffffffffffffffffffffffffffffff1673ffffffffffffffffffffffffffffffffffffffff166350ed3b898484608001516040518363ffffffff167c010000000000000000000000000000000000000000000000000000000002815260040180836000191660001916815260200182815260200192505050600060405180830381600087803b1515612d0257600080fd5b6102c65a03f11515612d1357600080fd5b505050505050565b61018060405190810160405280600073ffffffffffffffffffffffffffffffffffffffff168152602001600081526020016000815260200160008152602001600081526020016000815260200160008152602001600015158152602001600015158152602001612d89612fef565b815260200160008152602001600081525090565b828054600181600116156101000203166002900490600052602060002090601f016020900481019282601f10612dde57805160ff1916838001178555612e0c565b82800160010185558215612e0c579182015b82811115612e0b578251825591602001919060010190612df0565b5b509050612e199190613003565b5090565b828054600181600116156101000203166002900490600052602060002090601f016020900481019282601f10612e565780548555612e93565b82800160010185558215612e9357600052602060002091601f016020900482015b82811115612e92578254825591600101919060010190612e77565b5b509050612ea09190613003565b5090565b61018060405190810160405280612eb9612fef565b8152602001612ec6612fef565b8152602001612ed3612fef565b815260200160008152602001600015158152602001600015158152602001600015158152602001600015158152602001600081526020016000815260200160008152602001600081525090565b828054600181600116156101000203166002900490600052602060002090601f016020900481019282601f10612f6157805160ff1916838001178555612f8f565b82800160010185558215612f8f579182015b82811115612f8e578251825591602001919060010190612f73565b5b509050612f9c9190613003565b5090565b60a06040519081016040528060008152602001600073ffffffffffffffffffffffffffffffffffffffff16815260200160008152602001612fdf612fef565b8152602001600080191681525090565b602060405190810160405280600081525090565b61302591905b80821115613021576000816000905550600101613009565b5090565b905600a165627a7a7230582004177735b390bac307cdd63a8df776a0c0a189b93e9451fb3d48b86c9004c4b80029",
  "source": "pragma solidity 0.4.18;\n\nimport \"./EventContract.sol\";\n\ncontract Home {\n  address constant EVENT_ADDRESS = 0x01a1F5F6Dc5AB93A2E3c1af3CA85e768dAA228d9;\n\n  struct HomeCapacity {\n    uint guests;\n    uint bedroom;\n    uint bed;\n    uint bath;\n  }\n\n  struct HomeFeature {\n    bool internet;\n    bool kitchen;\n    bool iron;\n    bool hangers;\n  }\n\n  struct HomeData {\n    string name;\n    string description;\n    string streetAddress;\n\n    uint price; // Ether unit by wei\n\n    // feature\n    //HomeFeature feature;\n    bool internet;\n    bool kitchen;\n    bool iron;\n    bool hangers;\n\n    // capacity\n    //HomeCapacity capacity;\n    uint guests;\n    uint bedroom;\n    uint bed;\n    uint bathroom;\n  }\n\n  struct BookData {\n    address booker;\n    uint startDate; // day unit\n    uint duration;\n    uint checkinAt;\n    uint checkoutAt;\n    uint bookedAt;\n    uint cancelledAt;\n    bool isValid;\n    bool needResolve;\n    string needResolveReason;\n    uint resolveRefundRate;\n    uint sentAmount;\n  }\n\n  struct Review {\n    uint createdAt;\n    address commenter;\n    uint rate;\n    string message;\n    bytes32 bookDataHash;\n  }\n\n  address public owner;\n  address public judge;\n  uint public availableAmount;\n\n  HomeData private detail;\n  uint refundRate;\n\n  mapping (bytes32 => HomeData) private bookedHomeData;\n  mapping (bytes32 => BookData) private bookedData;\n  mapping (uint => bytes32) public bookedDates; // index by day\n  mapping (bytes32 => Review) public reviews;\n\n  // Event notification\n  EventContract eventContract;\n\n  modifier onlyJudge() {\n    if (msg.sender == judge) {\n      _;\n    }\n  }\n\n  modifier onlyOwner() {\n    if (msg.sender == owner) {\n      _;\n    }\n  }\n\n  function getDetail() public constant returns (HomeData) {\n    return detail;\n  }\n\n  function Home(address _judge, string _name, string _description, string _streetAddress, uint _price) public {\n    judge = _judge;\n    owner = msg.sender;\n\n    HomeData memory info;\n    info.name = _name;\n    info.price = _price;\n    info.description = _description;\n    info.streetAddress = _streetAddress;\n\n    detail = info;\n\n    refundRate = 100;\n\n    eventContract = EventContract(EVENT_ADDRESS);\n  }\n\n  function updateInfo(string _name, string _description, string _streetAddress, uint _price) public onlyOwner {\n    detail.name = _name;\n    detail.price = _price;\n    detail.description = _description;\n    detail.streetAddress = _streetAddress;\n    eventContract.updateInfo(_name, _description, _streetAddress, _price);\n  }\n\n  function updateCapacity(uint _guests, uint _bed, uint _bedroom, uint _bathroom) public onlyOwner {\n    detail.guests = _guests;\n    detail.bed = _bed;\n    detail.bedroom = _bedroom;\n    detail.bathroom = _bathroom;\n    eventContract.updateCapacity(_guests, _bed, _bedroom, _bathroom);\n  }\n\n  function updateFeature(bool _internet, bool _kitchen, bool _iron, bool _hangers) public onlyOwner {\n    detail.internet = _internet;\n    detail.kitchen = _kitchen;\n    detail.iron = _iron;\n    detail.hangers = _hangers;\n    eventContract.updateFeature(_internet, _kitchen, _iron, _hangers);\n  }\n\n  // start date must in day unit\n  function book(uint _startDate, uint _duration) public payable {\n    if (msg.value >= detail.price * _duration) {\n      // create new book data\n      BookData memory newBookData;\n      newBookData.booker = msg.sender;\n      newBookData.startDate = _startDate;\n      newBookData.duration = _duration;\n      newBookData.bookedAt = now;\n      newBookData.isValid = true;\n      newBookData.sentAmount = msg.value;\n\n      // calculate book data hash to lookup later\n      bytes32 bookDataHash = keccak256(newBookData.booker, newBookData.startDate, newBookData.duration,\n        newBookData.bookedAt, newBookData.isValid, newBookData.sentAmount);\n      bookedData[bookDataHash] = newBookData;\n      bookedHomeData[bookDataHash] = detail;\n\n      for (uint i = 0; i < _duration; i++) {\n        if (bookedDates[_startDate + i] == 0) {\n          bookedDates[_startDate + i] = bookDataHash;\n        } else {\n          revert();\n        }\n      }\n      eventContract.book(bookDataHash, _startDate, _duration);\n    }\n  }\n\n  function cancel(bytes32 _bookDataHash) payable public {\n    BookData memory bookData = bookedData[_bookDataHash];\n\n    require(bookData.isValid);\n    require(msg.sender == bookData.booker);\n    require(now <= bookData.startDate);\n\n    uint refundAmount = bookData.sentAmount * refundRate / 100;\n    availableAmount += bookData.sentAmount - refundAmount;\n    bookData.sentAmount = 0;\n    bookData.cancelledAt = now;\n    bookData.isValid = false;\n\n    // clear booked date\n    for (uint i = 0; i < bookData.duration; i++) {\n      delete(bookedDates[bookData.startDate + i]);\n    }\n\n    msg.sender.transfer(refundAmount);\n    eventContract.cancel(_bookDataHash, bookData.cancelledAt);\n  }\n\n  function checkin(bytes32 _bookDataHash) public {\n    BookData memory bookData = bookedData[_bookDataHash];\n\n    require(bookData.isValid);\n    require(msg.sender == bookData.booker);\n\n    uint startDate = (bookData.startDate * 24 + 12) * 60 * 60 * 1000;\n    require(now >= startDate);\n\n    bookData.checkinAt = now;\n\n    bookedData[_bookDataHash] = bookData;\n    eventContract.checkin(_bookDataHash, bookData.checkinAt);\n  }\n\n  function checkout(bytes32 _bookDataHash) public {\n    BookData memory bookData = bookedData[_bookDataHash];\n\n    require(bookData.isValid);\n    require(msg.sender == bookData.booker);\n    require(bookData.checkinAt > 0);\n    require(bookData.checkoutAt == 0);\n\n    uint startDate = (bookData.startDate * 24 + 12) * 60 * 60 * 1000;\n    require(now >= startDate);\n\n    bookData.checkoutAt = now;\n    availableAmount += bookData.sentAmount;\n    bookData.sentAmount = 0;\n    eventContract.checkout(_bookDataHash, bookData.checkoutAt);\n  }\n\n  function postReview(bytes32 _bookDataHash, uint _rate, string _message) public {\n    BookData memory bookData = bookedData[_bookDataHash];\n\n    require(bookData.isValid);\n    require(msg.sender == bookData.booker);\n\n    Review memory newReview;\n    newReview.createdAt = now;\n    newReview.commenter = msg.sender;\n    newReview.rate = _rate;\n    newReview.message = _message;\n    newReview.bookDataHash = _bookDataHash;\n\n    reviews[_bookDataHash] = newReview;\n  }\n\n  function requireResolve(bytes32 _bookDataHash, string _message) public {\n    BookData memory bookData = bookedData[_bookDataHash];\n\n    require(bookData.isValid);\n    require(bookData.booker == msg.sender);\n    require(!bookData.needResolve);\n    require(bookData.checkinAt > 0);\n    require(bookData.checkoutAt == 0);\n\n    bookData.needResolve = true;\n    bookData.needResolveReason = _message;\n\n    bookedData[_bookDataHash] = bookData;\n    eventContract.requireResolve(_bookDataHash, _message);\n  }\n\n  function resolveConflict(bytes32 _bookDataHash, uint _refundRate) public onlyJudge payable {\n    BookData memory bookData = bookedData[_bookDataHash];\n\n    require(bookData.isValid);\n    require(bookData.needResolve);\n\n    uint refundAmount = bookData.sentAmount * _refundRate / 100;\n    availableAmount += bookData.sentAmount - refundAmount;\n    bookData.sentAmount = 0;\n    bookData.resolveRefundRate = _refundRate;\n\n    bookData.booker.transfer(refundAmount);\n    \n  }\n\n  function withdraw() public onlyOwner payable {\n    uint amount = availableAmount;\n    availableAmount = 0;\n    owner.transfer(amount);\n  }\n\n  function withdrawBook(bytes32 _bookDataHash) public onlyOwner payable {\n    BookData memory bookData = bookedData[_bookDataHash];\n\n    require(bookData.isValid);\n    require(!bookData.needResolve);\n\n    uint canClaimDate = ((bookData.startDate + bookData.duration + 3) * 24 + 12) * 60 * 60 * 1000;\n    require(now >= canClaimDate);\n\n    uint amount = bookData.sentAmount;\n    bookData.sentAmount = 0;\n    owner.transfer(amount);\n  }\n}\n",
  "sourcePath": "/Users/tamnguyen/Blockathon/blockathon2017-team1/smart-contracts/contracts/Home.sol",
  "compiler": {
    "name": "solc",
    "version": "0.4.18+commit.9cf6e910.Emscripten.clang"
  },
  "schemaVersion": "1.0.1",
  "updatedAt": "2017-11-25T15:33:21.740Z"
}