{
  "contractName": "Home",
  "abi": [
    {
      "constant": false,
      "inputs": [
        {
          "name": "_startDate",
          "type": "uint256"
        },
        {
          "name": "_duration",
          "type": "uint256"
        }
      ],
      "name": "book",
      "outputs": [],
      "payable": true,
      "stateMutability": "payable",
      "type": "function"
    },
    {
      "constant": false,
      "inputs": [
        {
          "name": "_bookDataHash",
          "type": "bytes32"
        }
      ],
      "name": "checkin",
      "outputs": [],
      "payable": false,
      "stateMutability": "nonpayable",
      "type": "function"
    },
    {
      "constant": false,
      "inputs": [],
      "name": "withdraw",
      "outputs": [],
      "payable": true,
      "stateMutability": "payable",
      "type": "function"
    },
    {
      "constant": true,
      "inputs": [
        {
          "name": "",
          "type": "uint256"
        }
      ],
      "name": "bookedDates",
      "outputs": [
        {
          "name": "",
          "type": "bytes32"
        }
      ],
      "payable": false,
      "stateMutability": "view",
      "type": "function"
    },
    {
      "constant": false,
      "inputs": [
        {
          "name": "_guests",
          "type": "uint256"
        },
        {
          "name": "_bed",
          "type": "uint256"
        },
        {
          "name": "_bedroom",
          "type": "uint256"
        },
        {
          "name": "_bathroom",
          "type": "uint256"
        }
      ],
      "name": "updateCapacity",
      "outputs": [],
      "payable": false,
      "stateMutability": "nonpayable",
      "type": "function"
    },
    {
      "constant": true,
      "inputs": [],
      "name": "judge",
      "outputs": [
        {
          "name": "",
          "type": "address"
        }
      ],
      "payable": false,
      "stateMutability": "view",
      "type": "function"
    },
    {
      "constant": false,
      "inputs": [
        {
          "name": "_bookDataHash",
          "type": "bytes32"
        },
        {
          "name": "_message",
          "type": "string"
        }
      ],
      "name": "requireResolve",
      "outputs": [],
      "payable": false,
      "stateMutability": "nonpayable",
      "type": "function"
    },
    {
      "constant": true,
      "inputs": [],
      "name": "getDetail",
      "outputs": [
        {
          "components": [
            {
              "name": "name",
              "type": "string"
            },
            {
              "name": "description",
              "type": "string"
            },
            {
              "name": "streetAddress",
              "type": "string"
            },
            {
              "name": "price",
              "type": "uint256"
            },
            {
              "name": "internet",
              "type": "bool"
            },
            {
              "name": "kitchen",
              "type": "bool"
            },
            {
              "name": "iron",
              "type": "bool"
            },
            {
              "name": "hangers",
              "type": "bool"
            },
            {
              "name": "guests",
              "type": "uint256"
            },
            {
              "name": "bedroom",
              "type": "uint256"
            },
            {
              "name": "bed",
              "type": "uint256"
            },
            {
              "name": "bathroom",
              "type": "uint256"
            }
          ],
          "name": "",
          "type": "tuple"
        }
      ],
      "payable": false,
      "stateMutability": "view",
      "type": "function"
    },
    {
      "constant": true,
      "inputs": [
        {
          "name": "",
          "type": "bytes32"
        }
      ],
      "name": "reviews",
      "outputs": [
        {
          "name": "createdAt",
          "type": "uint256"
        },
        {
          "name": "commenter",
          "type": "address"
        },
        {
          "name": "rate",
          "type": "uint256"
        },
        {
          "name": "message",
          "type": "string"
        },
        {
          "name": "bookDataHash",
          "type": "bytes32"
        }
      ],
      "payable": false,
      "stateMutability": "view",
      "type": "function"
    },
    {
      "constant": true,
      "inputs": [],
      "name": "owner",
      "outputs": [
        {
          "name": "",
          "type": "address"
        }
      ],
      "payable": false,
      "stateMutability": "view",
      "type": "function"
    },
    {
      "constant": true,
      "inputs": [],
      "name": "availableAmount",
      "outputs": [
        {
          "name": "",
          "type": "uint256"
        }
      ],
      "payable": false,
      "stateMutability": "view",
      "type": "function"
    },
    {
      "constant": false,
      "inputs": [
        {
          "name": "_bookDataHash",
          "type": "bytes32"
        }
      ],
      "name": "withdrawBook",
      "outputs": [],
      "payable": true,
      "stateMutability": "payable",
      "type": "function"
    },
    {
      "constant": false,
      "inputs": [
        {
          "name": "_bookDataHash",
          "type": "bytes32"
        },
        {
          "name": "_refundRate",
          "type": "uint256"
        }
      ],
      "name": "resolveConflict",
      "outputs": [],
      "payable": true,
      "stateMutability": "payable",
      "type": "function"
    },
    {
      "constant": false,
      "inputs": [
        {
          "name": "_name",
          "type": "string"
        },
        {
          "name": "_description",
          "type": "string"
        },
        {
          "name": "_streetAddress",
          "type": "string"
        }
      ],
      "name": "updateInfo",
      "outputs": [],
      "payable": false,
      "stateMutability": "nonpayable",
      "type": "function"
    },
    {
      "constant": false,
      "inputs": [
        {
          "name": "_bookDataHash",
          "type": "bytes32"
        }
      ],
      "name": "cancel",
      "outputs": [],
      "payable": true,
      "stateMutability": "payable",
      "type": "function"
    },
    {
      "constant": false,
      "inputs": [
        {
          "name": "_internet",
          "type": "bool"
        },
        {
          "name": "_kitchen",
          "type": "bool"
        },
        {
          "name": "_iron",
          "type": "bool"
        },
        {
          "name": "_hangers",
          "type": "bool"
        }
      ],
      "name": "updateFeature",
      "outputs": [],
      "payable": false,
      "stateMutability": "nonpayable",
      "type": "function"
    },
    {
      "constant": false,
      "inputs": [
        {
          "name": "_bookDataHash",
          "type": "bytes32"
        },
        {
          "name": "_rate",
          "type": "uint256"
        },
        {
          "name": "_message",
          "type": "string"
        }
      ],
      "name": "postReview",
      "outputs": [],
      "payable": false,
      "stateMutability": "nonpayable",
      "type": "function"
    },
    {
      "constant": false,
      "inputs": [
        {
          "name": "_bookDataHash",
          "type": "bytes32"
        }
      ],
      "name": "checkout",
      "outputs": [],
      "payable": false,
      "stateMutability": "nonpayable",
      "type": "function"
    },
    {
      "inputs": [
        {
          "name": "_judge",
          "type": "address"
        },
        {
          "name": "_name",
          "type": "string"
        },
        {
          "name": "_description",
          "type": "string"
        },
        {
          "name": "_streetAddress",
          "type": "string"
        }
      ],
      "payable": false,
      "stateMutability": "nonpayable",
      "type": "constructor"
    }
  ],
  "bytecode": "0x606060405234156200001057600080fd5b60405162002c4138038062002c4183398101604052808051906020019091908051820191906020018051820191906020018051820191905050620000536200021b565b84600160006101000a81548173ffffffffffffffffffffffffffffffffffffffff021916908373ffffffffffffffffffffffffffffffffffffffff160217905550336000806101000a81548173ffffffffffffffffffffffffffffffffffffffff021916908373ffffffffffffffffffffffffffffffffffffffff1602179055508381600001819052508281602001819052508181604001819052508060036000820151816000019080519060200190620001109291906200029d565b5060208201518160010190805190602001906200012f9291906200029d565b5060408201518160020190805190602001906200014e9291906200029d565b506060820151816003015560808201518160040160006101000a81548160ff02191690831515021790555060a08201518160040160016101000a81548160ff02191690831515021790555060c08201518160040160026101000a81548160ff02191690831515021790555060e08201518160040160036101000a81548160ff02191690831515021790555061010082015181600501556101208201518160060155610140820151816007015561016082015181600801559050506064600c81905550505050505062000360565b610180604051908101604052806200023262000324565b81526020016200024162000324565b81526020016200025062000324565b815260200160008152602001600015158152602001600015158152602001600015158152602001600015158152602001600081526020016000815260200160008152602001600081525090565b828054600181600116156101000203166002900490600052602060002090601f016020900481019282601f10620002e057805160ff191683800117855562000311565b8280016001018555821562000311579182015b8281111562000310578251825591602001919060010190620002f3565b5b50905062000320919062000338565b5090565b602060405190810160405280600081525090565b6200035d91905b80821115620003595760008160009055506001016200033f565b5090565b90565b6128d180620003706000396000f3006060604052600436106100fb576000357c0100000000000000000000000000000000000000000000000000000000900463ffffffff1680624ef6c6146101005780633ba26fe8146101215780633ccfd60b1461014857806340975b7b146101525780634812601d14610191578063573255f4146101cf5780635aa185cc146102245780635b2a4cff1461028e5780638475100d146102b75780638da5cb5b146103c457806391f7cfb9146104195780639d2027e314610442578063a00018331461045e578063a4a21c3c14610483578063c4d252f514610566578063e7a2628c14610582578063eb4a33cc146105c8578063f0a855bc1461063b575b600080fd5b61011f6004808035906020019091908035906020019091905050610662565b005b341561012c57600080fd5b610146600480803560001916906020019091905050610aac565b005b610150610df7565b005b341561015d57600080fd5b6101736004808035906020019091905050610ec0565b60405180826000191660001916815260200191505060405180910390f35b341561019c57600080fd5b6101cd6004808035906020019091908035906020019091908035906020019091908035906020019091905050610ed8565b005b34156101da57600080fd5b6101e2610f5c565b604051808273ffffffffffffffffffffffffffffffffffffffff1673ffffffffffffffffffffffffffffffffffffffff16815260200191505060405180910390f35b341561022f57600080fd5b61028c60048080356000191690602001909190803590602001908201803590602001908080601f01602080910402602001604051908101604052809392919081815260200183838082843782019150505050505091905050610f82565b005b341561029957600080fd5b6102a16112f0565b6040518082815260200191505060405180910390f35b34156102c257600080fd5b6102dc600480803560001916906020019091905050611590565b604051808681526020018573ffffffffffffffffffffffffffffffffffffffff1673ffffffffffffffffffffffffffffffffffffffff1681526020018481526020018060200183600019166000191681526020018281038252848181546001816001161561010002031660029004815260200191508054600181600116156101000203166002900480156103b15780601f10610386576101008083540402835291602001916103b1565b820191906000526020600020905b81548152906001019060200180831161039457829003601f168201915b5050965050505050505060405180910390f35b34156103cf57600080fd5b6103d76115e5565b604051808273ffffffffffffffffffffffffffffffffffffffff1673ffffffffffffffffffffffffffffffffffffffff16815260200191505060405180910390f35b341561042457600080fd5b61042c61160a565b6040518082815260200191505060405180910390f35b61045c600480803560001916906020019091905050611610565b005b6104816004808035600019169060200190919080359060200190919050506118e4565b005b341561048e57600080fd5b610564600480803590602001908201803590602001908080601f0160208091040260200160405190810160405280939291908181526020018383808284378201915050505050509190803590602001908201803590602001908080601f0160208091040260200160405190810160405280939291908181526020018383808284378201915050505050509190803590602001908201803590602001908080601f01602080910402602001604051908101604052809392919081815260200183838082843782019150505050505091905050611b9c565b005b610580600480803560001916906020019091905050611c45565b005b341561058d57600080fd5b6105c660048080351515906020019091908035151590602001909190803515159060200190919080351515906020019091905050611f30565b005b34156105d357600080fd5b61063960048080356000191690602001909190803590602001909190803590602001908201803590602001908080601f01602080910402602001604051908101604052809392919081815260200183838082843782019150505050505091905050612000565b005b341561064657600080fd5b61066060048080356000191690602001909190505061231d565b005b61066a612598565b6000808360038001540234101515610aa55733836000019073ffffffffffffffffffffffffffffffffffffffff16908173ffffffffffffffffffffffffffffffffffffffff16815250508483602001818152505083836040018181525050428360a001818152505060018360e001901515908115158152505034836101600181815250508260000151836020015184604001518560a001518660e00151876101600151604051808773ffffffffffffffffffffffffffffffffffffffff1673ffffffffffffffffffffffffffffffffffffffff166c0100000000000000000000000002815260140186815260200185815260200184815260200183151515157f010000000000000000000000000000000000000000000000000000000000000002815260010182815260200196505050505050506040518091039020915082600e6000846000191660001916815260200190815260200160002060008201518160000160006101000a81548173ffffffffffffffffffffffffffffffffffffffff021916908373ffffffffffffffffffffffffffffffffffffffff1602179055506020820151816001015560408201518160020155606082015181600301556080820151816004015560a0820151816005015560c0820151816006015560e08201518160070160006101000a81548160ff0219169083151502179055506101008201518160070160016101000a81548160ff0219169083151502179055506101208201518160080190805190602001906108a592919061261a565b50610140820151816009015561016082015181600a01559050506003600d600084600019166000191681526020019081526020016000206000820181600001908054600181600116156101000203166002900461090392919061269a565b506001820181600101908054600181600116156101000203166002900461092b92919061269a565b506002820181600201908054600181600116156101000203166002900461095392919061269a565b50600382015481600301556004820160009054906101000a900460ff168160040160006101000a81548160ff0219169083151502179055506004820160019054906101000a900460ff168160040160016101000a81548160ff0219169083151502179055506004820160029054906101000a900460ff168160040160026101000a81548160ff0219169083151502179055506004820160039054906101000a900460ff168160040160036101000a81548160ff02191690831515021790555060058201548160050155600682015481600601556007820154816007015560088201548160080155905050600090505b83811015610aa4576000600102600f6000838801815260200190815260200160002054600019161415610a925781600f600083880181526020019081526020016000208160001916905550610a97565b600080fd5b8080600101915050610a42565b5b5050505050565b610ab4612598565b6000600e6000846000191660001916815260200190815260200160002061018060405190810160405290816000820160009054906101000a900473ffffffffffffffffffffffffffffffffffffffff1673ffffffffffffffffffffffffffffffffffffffff1673ffffffffffffffffffffffffffffffffffffffff1681526020016001820154815260200160028201548152602001600382015481526020016004820154815260200160058201548152602001600682015481526020016007820160009054906101000a900460ff161515151581526020016007820160019054906101000a900460ff16151515158152602001600882018054600181600116156101000203166002900480601f016020809104026020016040519081016040528092919081815260200182805460018160011615610100020316600290048015610c3f5780601f10610c1457610100808354040283529160200191610c3f565b820191906000526020600020905b815481529060010190602001808311610c2257829003601f168201915b5050505050815260200160098201548152602001600a8201548152505091508160e001511515610c6e57600080fd5b816000015173ffffffffffffffffffffffffffffffffffffffff163373ffffffffffffffffffffffffffffffffffffffff16141515610cac57600080fd5b6103e8603c80600c6018866020015102010202029050804210151515610cd157600080fd5b4282606001818152505081600e6000856000191660001916815260200190815260200160002060008201518160000160006101000a81548173ffffffffffffffffffffffffffffffffffffffff021916908373ffffffffffffffffffffffffffffffffffffffff1602179055506020820151816001015560408201518160020155606082015181600301556080820151816004015560a0820151816005015560c0820151816006015560e08201518160070160006101000a81548160ff0219169083151502179055506101008201518160070160016101000a81548160ff021916908315150217905550610120820151816008019080519060200190610dd892919061261a565b50610140820151816009015561016082015181600a0155905050505050565b60008060009054906101000a900473ffffffffffffffffffffffffffffffffffffffff1673ffffffffffffffffffffffffffffffffffffffff163373ffffffffffffffffffffffffffffffffffffffff161415610ebd57600254905060006002819055506000809054906101000a900473ffffffffffffffffffffffffffffffffffffffff1673ffffffffffffffffffffffffffffffffffffffff166108fc829081150290604051600060405180830381858888f193505050501515610ebc57600080fd5b5b50565b600f6020528060005260406000206000915090505481565b6000809054906101000a900473ffffffffffffffffffffffffffffffffffffffff1673ffffffffffffffffffffffffffffffffffffffff163373ffffffffffffffffffffffffffffffffffffffff161415610f5657836003600501819055508260036007018190555081600360060181905550806003600801819055505b50505050565b600160009054906101000a900473ffffffffffffffffffffffffffffffffffffffff1681565b610f8a612598565b600e6000846000191660001916815260200190815260200160002061018060405190810160405290816000820160009054906101000a900473ffffffffffffffffffffffffffffffffffffffff1673ffffffffffffffffffffffffffffffffffffffff1673ffffffffffffffffffffffffffffffffffffffff1681526020016001820154815260200160028201548152602001600382015481526020016004820154815260200160058201548152602001600682015481526020016007820160009054906101000a900460ff161515151581526020016007820160019054906101000a900460ff16151515158152602001600882018054600181600116156101000203166002900480601f0160208091040260200160405190810160405280929190818152602001828054600181600116156101000203166002900480156111135780601f106110e857610100808354040283529160200191611113565b820191906000526020600020905b8154815290600101906020018083116110f657829003601f168201915b5050505050815260200160098201548152602001600a8201548152505090508060e00151151561114257600080fd5b3373ffffffffffffffffffffffffffffffffffffffff16816000015173ffffffffffffffffffffffffffffffffffffffff1614151561118057600080fd5b80610100015115151561119257600080fd5b600081606001511115156111a557600080fd5b600081608001511415156111b857600080fd5b6001816101000190151590811515815250508181610120018190525080600e6000856000191660001916815260200190815260200160002060008201518160000160006101000a81548173ffffffffffffffffffffffffffffffffffffffff021916908373ffffffffffffffffffffffffffffffffffffffff1602179055506020820151816001015560408201518160020155606082015181600301556080820151816004015560a0820151816005015560c0820151816006015560e08201518160070160006101000a81548160ff0219169083151502179055506101008201518160070160016101000a81548160ff0219169083151502179055506101208201518160080190805190602001906112d192919061261a565b50610140820151816009015561016082015181600a0155905050505050565b6112f8612721565b60036101806040519081016040529081600082018054600181600116156101000203166002900480601f0160208091040260200160405190810160405280929190818152602001828054600181600116156101000203166002900480156113a05780601f10611375576101008083540402835291602001916113a0565b820191906000526020600020905b81548152906001019060200180831161138357829003601f168201915b50505050508152602001600182018054600181600116156101000203166002900480601f0160208091040260200160405190810160405280929190818152602001828054600181600116156101000203166002900480156114425780601f1061141757610100808354040283529160200191611442565b820191906000526020600020905b81548152906001019060200180831161142557829003601f168201915b50505050508152602001600282018054600181600116156101000203166002900480601f0160208091040260200160405190810160405280929190818152602001828054600181600116156101000203166002900480156114e45780601f106114b9576101008083540402835291602001916114e4565b820191906000526020600020905b8154815290600101906020018083116114c757829003601f168201915b50505050508152602001600382015481526020016004820160009054906101000a900460ff161515151581526020016004820160019054906101000a900460ff161515151581526020016004820160029054906101000a900460ff161515151581526020016004820160039054906101000a900460ff16151515158152602001600582015481526020016006820154815260200160078201548152602001600882015481525050905090565b60106020528060005260406000206000915090508060000154908060010160009054906101000a900473ffffffffffffffffffffffffffffffffffffffff169080600201549080600301908060040154905085565b6000809054906101000a900473ffffffffffffffffffffffffffffffffffffffff1681565b60025481565b611618612598565b6000806000809054906101000a900473ffffffffffffffffffffffffffffffffffffffff1673ffffffffffffffffffffffffffffffffffffffff163373ffffffffffffffffffffffffffffffffffffffff1614156118de57600e6000856000191660001916815260200190815260200160002061018060405190810160405290816000820160009054906101000a900473ffffffffffffffffffffffffffffffffffffffff1673ffffffffffffffffffffffffffffffffffffffff1673ffffffffffffffffffffffffffffffffffffffff1681526020016001820154815260200160028201548152602001600382015481526020016004820154815260200160058201548152602001600682015481526020016007820160009054906101000a900460ff161515151581526020016007820160019054906101000a900460ff16151515158152602001600882018054600181600116156101000203166002900480601f0160208091040260200160405190810160405280929190818152602001828054600181600116156101000203166002900480156117f95780601f106117ce576101008083540402835291602001916117f9565b820191906000526020600020905b8154815290600101906020018083116117dc57829003601f168201915b5050505050815260200160098201548152602001600a8201548152505092508260e00151151561182857600080fd5b82610100015115151561183a57600080fd5b6103e8603c80600c601860038860400151896020015101010201020202915081421015151561186857600080fd5b82610160015190506000836101600181815250506000809054906101000a900473ffffffffffffffffffffffffffffffffffffffff1673ffffffffffffffffffffffffffffffffffffffff166108fc829081150290604051600060405180830381858888f1935050505015156118dd57600080fd5b5b50505050565b6118ec612598565b6000600160009054906101000a900473ffffffffffffffffffffffffffffffffffffffff1673ffffffffffffffffffffffffffffffffffffffff163373ffffffffffffffffffffffffffffffffffffffff161415611b9657600e6000856000191660001916815260200190815260200160002061018060405190810160405290816000820160009054906101000a900473ffffffffffffffffffffffffffffffffffffffff1673ffffffffffffffffffffffffffffffffffffffff1673ffffffffffffffffffffffffffffffffffffffff1681526020016001820154815260200160028201548152602001600382015481526020016004820154815260200160058201548152602001600682015481526020016007820160009054906101000a900460ff161515151581526020016007820160019054906101000a900460ff16151515158152602001600882018054600181600116156101000203166002900480601f016020809104026020016040519081016040528092919081815260200182805460018160011615610100020316600290048015611acd5780601f10611aa257610100808354040283529160200191611acd565b820191906000526020600020905b815481529060010190602001808311611ab057829003601f168201915b5050505050815260200160098201548152602001600a8201548152505091508160e001511515611afc57600080fd5b8161010001511515611b0d57600080fd5b60648383610160015102811515611b2057fe5b04905080826101600151036002600082825401925050819055506000826101600181815250508282610140018181525050816000015173ffffffffffffffffffffffffffffffffffffffff166108fc829081150290604051600060405180830381858888f193505050501515611b9557600080fd5b5b50505050565b6000809054906101000a900473ffffffffffffffffffffffffffffffffffffffff1673ffffffffffffffffffffffffffffffffffffffff163373ffffffffffffffffffffffffffffffffffffffff161415611c40578260036000019080519060200190611c0a92919061279d565b508160036001019080519060200190611c2492919061279d565b508060036002019080519060200190611c3e92919061279d565b505b505050565b611c4d612598565b600080600e6000856000191660001916815260200190815260200160002061018060405190810160405290816000820160009054906101000a900473ffffffffffffffffffffffffffffffffffffffff1673ffffffffffffffffffffffffffffffffffffffff1673ffffffffffffffffffffffffffffffffffffffff1681526020016001820154815260200160028201548152602001600382015481526020016004820154815260200160058201548152602001600682015481526020016007820160009054906101000a900460ff161515151581526020016007820160019054906101000a900460ff16151515158152602001600882018054600181600116156101000203166002900480601f016020809104026020016040519081016040528092919081815260200182805460018160011615610100020316600290048015611dd95780601f10611dae57610100808354040283529160200191611dd9565b820191906000526020600020905b815481529060010190602001808311611dbc57829003601f168201915b5050505050815260200160098201548152602001600a8201548152505092508260e001511515611e0857600080fd5b826000015173ffffffffffffffffffffffffffffffffffffffff163373ffffffffffffffffffffffffffffffffffffffff16141515611e4657600080fd5b82602001514211151515611e5957600080fd5b6064600c5484610160015102811515611e6e57fe5b0491508183610160015103600260008282540192505081905550600083610160018181525050428360c001818152505060008360e0019015159081151581525050600090505b8260400151811015611eea57600f6000828560200151018152602001908152602001600020600090558080600101915050611eb4565b3373ffffffffffffffffffffffffffffffffffffffff166108fc839081150290604051600060405180830381858888f193505050501515611f2a57600080fd5b50505050565b6000809054906101000a900473ffffffffffffffffffffffffffffffffffffffff1673ffffffffffffffffffffffffffffffffffffffff163373ffffffffffffffffffffffffffffffffffffffff161415611ffa5783600360040160006101000a81548160ff02191690831515021790555082600360040160016101000a81548160ff02191690831515021790555081600360040160026101000a81548160ff02191690831515021790555080600360040160036101000a81548160ff0219169083151502179055505b50505050565b612008612598565b61201061281d565b600e6000866000191660001916815260200190815260200160002061018060405190810160405290816000820160009054906101000a900473ffffffffffffffffffffffffffffffffffffffff1673ffffffffffffffffffffffffffffffffffffffff1673ffffffffffffffffffffffffffffffffffffffff1681526020016001820154815260200160028201548152602001600382015481526020016004820154815260200160058201548152602001600682015481526020016007820160009054906101000a900460ff161515151581526020016007820160019054906101000a900460ff16151515158152602001600882018054600181600116156101000203166002900480601f0160208091040260200160405190810160405280929190818152602001828054600181600116156101000203166002900480156121995780601f1061216e57610100808354040283529160200191612199565b820191906000526020600020905b81548152906001019060200180831161217c57829003601f168201915b5050505050815260200160098201548152602001600a8201548152505091508160e0015115156121c857600080fd5b816000015173ffffffffffffffffffffffffffffffffffffffff163373ffffffffffffffffffffffffffffffffffffffff1614151561220657600080fd5b4281600001818152505033816020019073ffffffffffffffffffffffffffffffffffffffff16908173ffffffffffffffffffffffffffffffffffffffff1681525050838160400181815250508281606001819052508481608001906000191690816000191681525050806010600087600019166000191681526020019081526020016000206000820151816000015560208201518160010160006101000a81548173ffffffffffffffffffffffffffffffffffffffff021916908373ffffffffffffffffffffffffffffffffffffffff16021790555060408201518160020155606082015181600301908051906020019061230292919061261a565b50608082015181600401906000191690559050505050505050565b612325612598565b6000600e6000846000191660001916815260200190815260200160002061018060405190810160405290816000820160009054906101000a900473ffffffffffffffffffffffffffffffffffffffff1673ffffffffffffffffffffffffffffffffffffffff1673ffffffffffffffffffffffffffffffffffffffff1681526020016001820154815260200160028201548152602001600382015481526020016004820154815260200160058201548152602001600682015481526020016007820160009054906101000a900460ff161515151581526020016007820160019054906101000a900460ff16151515158152602001600882018054600181600116156101000203166002900480601f0160208091040260200160405190810160405280929190818152602001828054600181600116156101000203166002900480156124b05780601f10612485576101008083540402835291602001916124b0565b820191906000526020600020905b81548152906001019060200180831161249357829003601f168201915b5050505050815260200160098201548152602001600a8201548152505091508160e0015115156124df57600080fd5b816000015173ffffffffffffffffffffffffffffffffffffffff163373ffffffffffffffffffffffffffffffffffffffff1614151561251d57600080fd5b6000826060015111151561253057600080fd5b6000826080015114151561254357600080fd5b6103e8603c80600c601886602001510201020202905080421015151561256857600080fd5b42826080018181525050816101600151600260008282540192505081905550600082610160018181525050505050565b61018060405190810160405280600073ffffffffffffffffffffffffffffffffffffffff16815260200160008152602001600081526020016000815260200160008152602001600081526020016000815260200160001515815260200160001515815260200161260661286c565b815260200160008152602001600081525090565b828054600181600116156101000203166002900490600052602060002090601f016020900481019282601f1061265b57805160ff1916838001178555612689565b82800160010185558215612689579182015b8281111561268857825182559160200191906001019061266d565b5b5090506126969190612880565b5090565b828054600181600116156101000203166002900490600052602060002090601f016020900481019282601f106126d35780548555612710565b8280016001018555821561271057600052602060002091601f016020900482015b8281111561270f5782548255916001019190600101906126f4565b5b50905061271d9190612880565b5090565b6101806040519081016040528061273661286c565b815260200161274361286c565b815260200161275061286c565b815260200160008152602001600015158152602001600015158152602001600015158152602001600015158152602001600081526020016000815260200160008152602001600081525090565b828054600181600116156101000203166002900490600052602060002090601f016020900481019282601f106127de57805160ff191683800117855561280c565b8280016001018555821561280c579182015b8281111561280b5782518255916020019190600101906127f0565b5b5090506128199190612880565b5090565b60a06040519081016040528060008152602001600073ffffffffffffffffffffffffffffffffffffffff1681526020016000815260200161285c61286c565b8152602001600080191681525090565b602060405190810160405280600081525090565b6128a291905b8082111561289e576000816000905550600101612886565b5090565b905600a165627a7a72305820aaefcb6b99df4e12a0ae2af6af2bb5e097b0da6de9ec1ad0b9ea9c47a97d57260029",
  "source": "pragma solidity 0.4.18;\n\ncontract Home {\n\n  struct HomeCapacity {\n    uint guests;\n    uint bedroom;\n    uint bed;\n    uint bath;\n  }\n\n  struct HomeFeature {\n    bool internet;\n    bool kitchen;\n    bool iron;\n    bool hangers;\n  }\n\n  struct HomeData {\n    string name;\n    string description;\n    string streetAddress;\n\n    uint price; // Ether unit by wei\n\n    // feature\n    //HomeFeature feature;\n    bool internet;\n    bool kitchen;\n    bool iron;\n    bool hangers;\n\n    // capacity\n    //HomeCapacity capacity;\n    uint guests;\n    uint bedroom;\n    uint bed;\n    uint bathroom;\n  }\n\n  struct BookData {\n    address booker;\n    uint startDate; // day unit\n    uint duration;\n    uint checkinAt;\n    uint checkoutAt;\n    uint bookedAt;\n    uint cancelledAt;\n    bool isValid;\n    bool needResolve;\n    string needResolveReason;\n    uint resolveRefundRate;\n    uint sentAmount;\n  }\n\n  struct Review {\n    uint createdAt;\n    address commenter;\n    uint rate;\n    string message;\n    bytes32 bookDataHash;\n  }\n\n  address public owner;\n  address public judge;\n  uint public availableAmount;\n\n  HomeData private detail;\n  uint refundRate;\n\n  mapping (bytes32 => HomeData) private bookedHomeData;\n  mapping (bytes32 => BookData) private bookedData;\n  mapping (uint => bytes32) public bookedDates; // index by day\n  mapping (bytes32 => Review) public reviews;\n\n  modifier onlyJudge() {\n    if (msg.sender == judge) {\n      _;\n    }\n  }\n\n  modifier onlyOwner() {\n    if (msg.sender == owner) {\n      _;\n    }\n  }\n\n  function getDetail() public constant returns (HomeData) {\n    return detail;\n  }\n\n  function Home(address _judge, string _name, string _description, string _streetAddress) public {\n    judge = _judge;\n    owner = msg.sender;\n\n    HomeData memory info;\n    info.name = _name;\n    info.description = _description;\n    info.streetAddress = _streetAddress;\n\n    detail = info;\n\n    refundRate = 100;\n  }\n\n  function updateInfo(string _name, string _description, string _streetAddress) public onlyOwner {\n    detail.name = _name;\n    detail.description = _description;\n    detail.streetAddress = _streetAddress;\n  }\n\n  function updateCapacity(uint _guests, uint _bed, uint _bedroom, uint _bathroom) public onlyOwner {\n    detail.guests = _guests;\n    detail.bed = _bed;\n    detail.bedroom = _bedroom;\n    detail.bathroom = _bathroom;\n  }\n\n  function updateFeature(bool _internet, bool _kitchen, bool _iron, bool _hangers) public onlyOwner {\n    detail.internet = _internet;\n    detail.kitchen = _kitchen;\n    detail.iron = _iron;\n    detail.hangers = _hangers;\n  }\n\n  // start date must in day unit\n  function book(uint _startDate, uint _duration) public payable {\n    if (msg.value >= detail.price * _duration) {\n      // create new book data\n      BookData memory newBookData;\n      newBookData.booker = msg.sender;\n      newBookData.startDate = _startDate;\n      newBookData.duration = _duration;\n      newBookData.bookedAt = now;\n      newBookData.isValid = true;\n      newBookData.sentAmount = msg.value;\n\n      // calculate book data hash to lookup later\n      bytes32 bookDataHash = keccak256(newBookData.booker, newBookData.startDate, newBookData.duration,\n        newBookData.bookedAt, newBookData.isValid, newBookData.sentAmount);\n      bookedData[bookDataHash] = newBookData;\n      bookedHomeData[bookDataHash] = detail;\n\n      for (uint i = 0; i < _duration; i++) {\n        if (bookedDates[_startDate + i] == 0) {\n          bookedDates[_startDate + i] = bookDataHash;\n        } else {\n          revert();\n        }\n      }\n    }\n  }\n\n  function cancel(bytes32 _bookDataHash) payable public {\n    BookData memory bookData = bookedData[_bookDataHash];\n\n    require(bookData.isValid);\n    require(msg.sender == bookData.booker);\n    require(now <= bookData.startDate);\n\n    uint refundAmount = bookData.sentAmount * refundRate / 100;\n    availableAmount += bookData.sentAmount - refundAmount;\n    bookData.sentAmount = 0;\n    bookData.cancelledAt = now;\n    bookData.isValid = false;\n\n    // clear booked date\n    for (uint i = 0; i < bookData.duration; i++) {\n      delete(bookedDates[bookData.startDate + i]);\n    }\n\n    msg.sender.transfer(refundAmount);\n  }\n\n  function checkin(bytes32 _bookDataHash) public {\n    BookData memory bookData = bookedData[_bookDataHash];\n\n    require(bookData.isValid);\n    require(msg.sender == bookData.booker);\n\n    uint startDate = (bookData.startDate * 24 + 12) * 60 * 60 * 1000;\n    require(now >= startDate);\n\n    bookData.checkinAt = now;\n\n    bookedData[_bookDataHash] = bookData;\n  }\n\n  function checkout(bytes32 _bookDataHash) public {\n    BookData memory bookData = bookedData[_bookDataHash];\n\n    require(bookData.isValid);\n    require(msg.sender == bookData.booker);\n    require(bookData.checkinAt > 0);\n    require(bookData.checkoutAt == 0);\n\n    uint startDate = (bookData.startDate * 24 + 12) * 60 * 60 * 1000;\n    require(now >= startDate);\n\n    bookData.checkoutAt = now;\n    availableAmount += bookData.sentAmount;\n    bookData.sentAmount = 0;\n  }\n\n  function postReview(bytes32 _bookDataHash, uint _rate, string _message) public {\n    BookData memory bookData = bookedData[_bookDataHash];\n\n    require(bookData.isValid);\n    require(msg.sender == bookData.booker);\n\n    Review memory newReview;\n    newReview.createdAt = now;\n    newReview.commenter = msg.sender;\n    newReview.rate = _rate;\n    newReview.message = _message;\n    newReview.bookDataHash = _bookDataHash;\n\n    reviews[_bookDataHash] = newReview;\n  }\n\n  function requireResolve(bytes32 _bookDataHash, string _message) public {\n    BookData memory bookData = bookedData[_bookDataHash];\n\n    require(bookData.isValid);\n    require(bookData.booker == msg.sender);\n    require(!bookData.needResolve);\n    require(bookData.checkinAt > 0);\n    require(bookData.checkoutAt == 0);\n\n    bookData.needResolve = true;\n    bookData.needResolveReason = _message;\n\n    bookedData[_bookDataHash] = bookData;\n  }\n\n  function resolveConflict(bytes32 _bookDataHash, uint _refundRate) public onlyJudge payable {\n    BookData memory bookData = bookedData[_bookDataHash];\n\n    require(bookData.isValid);\n    require(bookData.needResolve);\n\n    uint refundAmount = bookData.sentAmount * _refundRate / 100;\n    availableAmount += bookData.sentAmount - refundAmount;\n    bookData.sentAmount = 0;\n    bookData.resolveRefundRate = _refundRate;\n\n    bookData.booker.transfer(refundAmount);\n  }\n\n  function withdraw() public onlyOwner payable {\n    uint amount = availableAmount;\n    availableAmount = 0;\n    owner.transfer(amount);\n  }\n\n  function withdrawBook(bytes32 _bookDataHash) public onlyOwner payable {\n    BookData memory bookData = bookedData[_bookDataHash];\n\n    require(bookData.isValid);\n    require(!bookData.needResolve);\n\n    uint canClaimDate = ((bookData.startDate + bookData.duration + 3) * 24 + 12) * 60 * 60 * 1000;\n    require(now >= canClaimDate);\n\n    uint amount = bookData.sentAmount;\n    bookData.sentAmount = 0;\n    owner.transfer(amount);\n  }\n}\n",
  "sourcePath": "/Users/thvu/Projects/blockathon2017-team1/smart-contracts/contracts/Home.sol",
  "compiler": {
    "name": "solc",
    "version": "0.4.18+commit.9cf6e910.Emscripten.clang"
  },
  "schemaVersion": "1.0.1",
  "updatedAt": "2017-11-25T13:00:31.714Z"
}