{
  "contractName": "Home",
  "abi": [
    {
      "constant": true,
      "inputs": [
        {
          "name": "",
          "type": "address"
        }
      ],
      "name": "bookdataHistory",
      "outputs": [
        {
          "name": "name",
          "type": "string"
        },
        {
          "name": "description",
          "type": "string"
        },
        {
          "name": "street",
          "type": "string"
        },
        {
          "name": "price",
          "type": "uint256"
        },
        {
          "name": "isValid",
          "type": "bool"
        },
        {
          "name": "checkinAt",
          "type": "uint256"
        },
        {
          "name": "checkoutAt",
          "type": "uint256"
        },
        {
          "name": "bookedAt",
          "type": "uint256"
        }
      ],
      "payable": false,
      "stateMutability": "view",
      "type": "function"
    },
    {
      "constant": false,
      "inputs": [
        {
          "name": "refundRate",
          "type": "uint256"
        }
      ],
      "name": "cancel",
      "outputs": [],
      "payable": false,
      "stateMutability": "nonpayable",
      "type": "function"
    },
    {
      "constant": false,
      "inputs": [
        {
          "name": "_rate",
          "type": "uint256"
        },
        {
          "name": "_message",
          "type": "string"
        },
        {
          "name": "_createdTime",
          "type": "uint256"
        }
      ],
      "name": "postReview",
      "outputs": [],
      "payable": false,
      "stateMutability": "nonpayable",
      "type": "function"
    },
    {
      "constant": true,
      "inputs": [],
      "name": "feature",
      "outputs": [
        {
          "name": "internet",
          "type": "bool"
        },
        {
          "name": "kitchen",
          "type": "bool"
        },
        {
          "name": "iron",
          "type": "bool"
        },
        {
          "name": "hangers",
          "type": "bool"
        }
      ],
      "payable": false,
      "stateMutability": "view",
      "type": "function"
    },
    {
      "constant": false,
      "inputs": [
        {
          "name": "_guest",
          "type": "uint256"
        },
        {
          "name": "_bedroom",
          "type": "uint256"
        },
        {
          "name": "_bed",
          "type": "uint256"
        },
        {
          "name": "_bath",
          "type": "uint256"
        }
      ],
      "name": "updateCapacity",
      "outputs": [],
      "payable": false,
      "stateMutability": "nonpayable",
      "type": "function"
    },
    {
      "constant": false,
      "inputs": [
        {
          "name": "bookedAt",
          "type": "uint256"
        },
        {
          "name": "startDate",
          "type": "uint256"
        },
        {
          "name": "duration",
          "type": "uint256"
        }
      ],
      "name": "book",
      "outputs": [],
      "payable": true,
      "stateMutability": "payable",
      "type": "function"
    },
    {
      "constant": false,
      "inputs": [
        {
          "name": "date",
          "type": "uint256"
        }
      ],
      "name": "checkout",
      "outputs": [],
      "payable": false,
      "stateMutability": "nonpayable",
      "type": "function"
    },
    {
      "constant": false,
      "inputs": [
        {
          "name": "_name",
          "type": "string"
        },
        {
          "name": "_description",
          "type": "string"
        },
        {
          "name": "_street",
          "type": "string"
        },
        {
          "name": "_price",
          "type": "uint256"
        }
      ],
      "name": "update",
      "outputs": [],
      "payable": false,
      "stateMutability": "nonpayable",
      "type": "function"
    },
    {
      "constant": true,
      "inputs": [],
      "name": "capacity",
      "outputs": [
        {
          "name": "guest",
          "type": "uint256"
        },
        {
          "name": "bedroom",
          "type": "uint256"
        },
        {
          "name": "bed",
          "type": "uint256"
        },
        {
          "name": "bath",
          "type": "uint256"
        }
      ],
      "payable": false,
      "stateMutability": "view",
      "type": "function"
    },
    {
      "constant": true,
      "inputs": [],
      "name": "detail",
      "outputs": [
        {
          "name": "name",
          "type": "string"
        },
        {
          "name": "description",
          "type": "string"
        },
        {
          "name": "street",
          "type": "string"
        },
        {
          "name": "price",
          "type": "uint256"
        },
        {
          "name": "isValid",
          "type": "bool"
        },
        {
          "name": "checkinAt",
          "type": "uint256"
        },
        {
          "name": "checkoutAt",
          "type": "uint256"
        },
        {
          "name": "bookedAt",
          "type": "uint256"
        }
      ],
      "payable": false,
      "stateMutability": "view",
      "type": "function"
    },
    {
      "constant": true,
      "inputs": [],
      "name": "owner",
      "outputs": [
        {
          "name": "",
          "type": "address"
        }
      ],
      "payable": false,
      "stateMutability": "view",
      "type": "function"
    },
    {
      "constant": true,
      "inputs": [
        {
          "name": "",
          "type": "uint256"
        }
      ],
      "name": "bookSchedule",
      "outputs": [
        {
          "name": "",
          "type": "address"
        }
      ],
      "payable": false,
      "stateMutability": "view",
      "type": "function"
    },
    {
      "constant": true,
      "inputs": [
        {
          "name": "",
          "type": "uint256"
        }
      ],
      "name": "reviewHistory",
      "outputs": [
        {
          "name": "createdTime",
          "type": "uint256"
        },
        {
          "name": "owner",
          "type": "address"
        },
        {
          "name": "rate",
          "type": "uint256"
        },
        {
          "name": "message",
          "type": "string"
        }
      ],
      "payable": false,
      "stateMutability": "view",
      "type": "function"
    },
    {
      "constant": true,
      "inputs": [],
      "name": "consumer",
      "outputs": [
        {
          "name": "",
          "type": "address"
        }
      ],
      "payable": false,
      "stateMutability": "view",
      "type": "function"
    },
    {
      "constant": true,
      "inputs": [
        {
          "name": "",
          "type": "uint256"
        }
      ],
      "name": "checkinSchedule",
      "outputs": [
        {
          "name": "",
          "type": "address"
        }
      ],
      "payable": false,
      "stateMutability": "view",
      "type": "function"
    },
    {
      "constant": false,
      "inputs": [
        {
          "name": "date",
          "type": "uint256"
        }
      ],
      "name": "checkin",
      "outputs": [],
      "payable": false,
      "stateMutability": "nonpayable",
      "type": "function"
    },
    {
      "constant": false,
      "inputs": [
        {
          "name": "_internet",
          "type": "bool"
        },
        {
          "name": "_kitchen",
          "type": "bool"
        },
        {
          "name": "_iron",
          "type": "bool"
        },
        {
          "name": "_hangers",
          "type": "bool"
        }
      ],
      "name": "updateFeature",
      "outputs": [],
      "payable": false,
      "stateMutability": "nonpayable",
      "type": "function"
    },
    {
      "constant": true,
      "inputs": [
        {
          "name": "",
          "type": "uint256"
        }
      ],
      "name": "checkoutSchedule",
      "outputs": [
        {
          "name": "",
          "type": "address"
        }
      ],
      "payable": false,
      "stateMutability": "view",
      "type": "function"
    },
    {
      "inputs": [
        {
          "name": "_name",
          "type": "string"
        },
        {
          "name": "_description",
          "type": "string"
        },
        {
          "name": "_street",
          "type": "string"
        },
        {
          "name": "_price",
          "type": "uint256"
        }
      ],
      "payable": false,
      "stateMutability": "nonpayable",
      "type": "constructor"
    }
  ],
  "bytecode": "0x606060405234156200001057600080fd5b60405162001a0d38038062001a0d83398101604052808051820191906020018051820191906020018051820191906020018051906020019091905050336000806101000a81548173ffffffffffffffffffffffffffffffffffffffff021916908373ffffffffffffffffffffffffffffffffffffffff1602179055506001600260040160006101000a81548160ff0219169083151502179055508360026000019080519060200190620000c592919062000111565b508260026001019080519060200190620000e192919062000111565b5081600280019080519060200190620000fc92919062000111565b508060026003018190555050505050620001c0565b828054600181600116156101000203166002900490600052602060002090601f016020900481019282601f106200015457805160ff191683800117855562000185565b8280016001018555821562000185579182015b828111156200018457825182559160200191906001019062000167565b5b50905062000194919062000198565b5090565b620001bd91905b80821115620001b95760008160009055506001016200019f565b5090565b90565b61183d80620001d06000396000f3006060604052600436106100fc576000357c0100000000000000000000000000000000000000000000000000000000900463ffffffff1680631b8824b91461010157806340e58ee51461030957806342d135661461032c5780634315f0ea1461039b5780634812601d146103e95780634c4c2010146104275780634c9ba85214610451578063530b53f9146104745780635cfc1a51146105605780636b7cc44f1461059e5780638da5cb5b14610782578063a1432edf146107d7578063a63c62631461083a578063b4fd729614610934578063dc3eb9ae14610989578063e4ba1518146109ec578063e7a2628c14610a0f578063f28d6ae514610a55575b600080fd5b341561010c57600080fd5b610138600480803573ffffffffffffffffffffffffffffffffffffffff16906020019091905050610ab8565b604051808060200180602001806020018981526020018815151515815260200187815260200186815260200185815260200184810384528c8181546001816001161561010002031660029004815260200191508054600181600116156101000203166002900480156101eb5780601f106101c0576101008083540402835291602001916101eb565b820191906000526020600020905b8154815290600101906020018083116101ce57829003601f168201915b505084810383528b81815460018160011615610100020316600290048152602001915080546001816001161561010002031660029004801561026e5780601f106102435761010080835404028352916020019161026e565b820191906000526020600020905b81548152906001019060200180831161025157829003601f168201915b505084810382528a8181546001816001161561010002031660029004815260200191508054600181600116156101000203166002900480156102f15780601f106102c6576101008083540402835291602001916102f1565b820191906000526020600020905b8154815290600101906020018083116102d457829003601f168201915b50509b50505050505050505050505060405180910390f35b341561031457600080fd5b61032a6004808035906020019091905050610b0a565b005b341561033757600080fd5b610399600480803590602001909190803590602001908201803590602001908080601f01602080910402602001604051908101604052809392919081815260200183838082843782019150505050505091908035906020019091905050610c49565b005b34156103a657600080fd5b6103ae610d80565b604051808515151515815260200184151515158152602001831515151581526020018215151515815260200194505050505060405180910390f35b34156103f457600080fd5b6104256004808035906020019091908035906020019091908035906020019091908035906020019091905050610dd2565b005b61044f6004808035906020019091908035906020019091908035906020019091905050610e56565b005b341561045c57600080fd5b6104726004808035906020019091905050610fe7565b005b341561047f57600080fd5b61055e600480803590602001908201803590602001908080601f0160208091040260200160405190810160405280939291908181526020018383808284378201915050505050509190803590602001908201803590602001908080601f0160208091040260200160405190810160405280939291908181526020018383808284378201915050505050509190803590602001908201803590602001908080601f016020809104026020016040519081016040528093929190818152602001838380828437820191505050505050919080359060200190919050506110ff565b005b341561056b57600080fd5b6105736111d0565b6040518085815260200184815260200183815260200182815260200194505050505060405180910390f35b34156105a957600080fd5b6105b16111ee565b604051808060200180602001806020018981526020018815151515815260200187815260200186815260200185815260200184810384528c8181546001816001161561010002031660029004815260200191508054600181600116156101000203166002900480156106645780601f1061063957610100808354040283529160200191610664565b820191906000526020600020905b81548152906001019060200180831161064757829003601f168201915b505084810383528b8181546001816001161561010002031660029004815260200191508054600181600116156101000203166002900480156106e75780601f106106bc576101008083540402835291602001916106e7565b820191906000526020600020905b8154815290600101906020018083116106ca57829003601f168201915b505084810382528a81815460018160011615610100020316600290048152602001915080546001816001161561010002031660029004801561076a5780601f1061073f5761010080835404028352916020019161076a565b820191906000526020600020905b81548152906001019060200180831161074d57829003601f168201915b50509b50505050505050505050505060405180910390f35b341561078d57600080fd5b61079561122e565b604051808273ffffffffffffffffffffffffffffffffffffffff1673ffffffffffffffffffffffffffffffffffffffff16815260200191505060405180910390f35b34156107e257600080fd5b6107f86004808035906020019091905050611253565b604051808273ffffffffffffffffffffffffffffffffffffffff1673ffffffffffffffffffffffffffffffffffffffff16815260200191505060405180910390f35b341561084557600080fd5b61085b6004808035906020019091905050611286565b604051808581526020018473ffffffffffffffffffffffffffffffffffffffff1673ffffffffffffffffffffffffffffffffffffffff168152602001838152602001806020018281038252838181546001816001161561010002031660029004815260200191508054600181600116156101000203166002900480156109225780601f106108f757610100808354040283529160200191610922565b820191906000526020600020905b81548152906001019060200180831161090557829003601f168201915b50509550505050505060405180910390f35b341561093f57600080fd5b6109476112e4565b604051808273ffffffffffffffffffffffffffffffffffffffff1673ffffffffffffffffffffffffffffffffffffffff16815260200191505060405180910390f35b341561099457600080fd5b6109aa600480803590602001909190505061130a565b604051808273ffffffffffffffffffffffffffffffffffffffff1673ffffffffffffffffffffffffffffffffffffffff16815260200191505060405180910390f35b34156109f757600080fd5b610a0d600480803590602001909190505061133d565b005b3415610a1a57600080fd5b610a5360048080351515906020019091908035151590602001909190803515159060200190919080351515906020019091905050611482565b005b3415610a6057600080fd5b610a766004808035906020019091905050611552565b604051808273ffffffffffffffffffffffffffffffffffffffff1673ffffffffffffffffffffffffffffffffffffffff16815260200191505060405180910390f35b600f6020528060005260406000206000915090508060000190806001019080600201908060030154908060040160009054906101000a900460ff16908060050154908060060154908060070154905088565b6000606482600f60003373ffffffffffffffffffffffffffffffffffffffff1673ffffffffffffffffffffffffffffffffffffffff1681526020019081526020016000206003015402811515610b5c57fe5b0490503373ffffffffffffffffffffffffffffffffffffffff166108fc829081150290604051600060405180830381858888f193505050501515610b9f57600080fd5b600f60003373ffffffffffffffffffffffffffffffffffffffff1673ffffffffffffffffffffffffffffffffffffffff16815260200190815260200160002060008082016000610bef9190611585565b600182016000610bff9190611585565b600282016000610c0f9190611585565b60038201600090556004820160006101000a81549060ff021916905560058201600090556006820160009055600782016000905550505050565b600f60003373ffffffffffffffffffffffffffffffffffffffff1673ffffffffffffffffffffffffffffffffffffffff16815260200190815260200160002060040160009054906101000a900460ff1615610d7b5760138054806001018281610cb291906115cd565b916000526020600020906004020160006080604051908101604052808581526020013373ffffffffffffffffffffffffffffffffffffffff1681526020018781526020018681525090919091506000820151816000015560208201518160010160006101000a81548173ffffffffffffffffffffffffffffffffffffffff021916908373ffffffffffffffffffffffffffffffffffffffff160217905550604082015181600201556060820151816003019080519060200190610d769291906115ff565b505050505b505050565b600e8060000160009054906101000a900460ff16908060000160019054906101000a900460ff16908060000160029054906101000a900460ff16908060000160039054906101000a900460ff16905084565b6000809054906101000a900473ffffffffffffffffffffffffffffffffffffffff1673ffffffffffffffffffffffffffffffffffffffff163373ffffffffffffffffffffffffffffffffffffffff161415610e505783600a6000018190555082600a6001018190555081600a6002018190555080600a600301819055505b50505050565b6000836002600701819055506002600f60003373ffffffffffffffffffffffffffffffffffffffff1673ffffffffffffffffffffffffffffffffffffffff16815260200190815260200160002060008201816000019080546001816001161561010002031660029004610eca92919061167f565b5060018201816001019080546001816001161561010002031660029004610ef292919061167f565b5060028201816002019080546001816001161561010002031660029004610f1a92919061167f565b50600382015481600301556004820160009054906101000a900460ff168160040160006101000a81548160ff021916908315150217905550600582015481600501556006820154816006015560078201548160070155905050600090505b81811015610fe1573360106000838601815260200190815260200160002060006101000a81548173ffffffffffffffffffffffffffffffffffffffff021916908373ffffffffffffffffffffffffffffffffffffffff1602179055508080600101915050610f78565b50505050565b600160009054906101000a900473ffffffffffffffffffffffffffffffffffffffff1673ffffffffffffffffffffffffffffffffffffffff163373ffffffffffffffffffffffffffffffffffffffff1614156110fc57600160006101000a81549073ffffffffffffffffffffffffffffffffffffffff0219169055336012600083815260200190815260200160002060006101000a81548173ffffffffffffffffffffffffffffffffffffffff021916908373ffffffffffffffffffffffffffffffffffffffff16021790555080600f60003373ffffffffffffffffffffffffffffffffffffffff1673ffffffffffffffffffffffffffffffffffffffff168152602001908152602001600020600601819055505b50565b6000809054906101000a900473ffffffffffffffffffffffffffffffffffffffff1673ffffffffffffffffffffffffffffffffffffffff163373ffffffffffffffffffffffffffffffffffffffff1614156111ca576001600260040160006101000a81548160ff021916908315150217905550836002600001908051906020019061118b929190611706565b5082600260010190805190602001906111a5929190611706565b50816002800190805190602001906111be929190611706565b50806002600301819055505b50505050565b600a8060000154908060010154908060020154908060030154905084565b60028060000190806001019080600201908060030154908060040160009054906101000a900460ff16908060050154908060060154908060070154905088565b6000809054906101000a900473ffffffffffffffffffffffffffffffffffffffff1681565b60106020528060005260406000206000915054906101000a900473ffffffffffffffffffffffffffffffffffffffff1681565b60138181548110151561129557fe5b90600052602060002090600402016000915090508060000154908060010160009054906101000a900473ffffffffffffffffffffffffffffffffffffffff169080600201549080600301905084565b600160009054906101000a900473ffffffffffffffffffffffffffffffffffffffff1681565b60116020528060005260406000206000915054906101000a900473ffffffffffffffffffffffffffffffffffffffff1681565b3373ffffffffffffffffffffffffffffffffffffffff166010600083815260200190815260200160002060009054906101000a900473ffffffffffffffffffffffffffffffffffffffff1673ffffffffffffffffffffffffffffffffffffffff16141561147f5733600160006101000a81548173ffffffffffffffffffffffffffffffffffffffff021916908373ffffffffffffffffffffffffffffffffffffffff160217905550336011600083815260200190815260200160002060006101000a81548173ffffffffffffffffffffffffffffffffffffffff021916908373ffffffffffffffffffffffffffffffffffffffff16021790555080600f60003373ffffffffffffffffffffffffffffffffffffffff1673ffffffffffffffffffffffffffffffffffffffff168152602001908152602001600020600501819055505b50565b6000809054906101000a900473ffffffffffffffffffffffffffffffffffffffff1673ffffffffffffffffffffffffffffffffffffffff163373ffffffffffffffffffffffffffffffffffffffff16141561154c5783600e60000160006101000a81548160ff02191690831515021790555082600e60000160016101000a81548160ff02191690831515021790555081600e60000160026101000a81548160ff02191690831515021790555080600e60000160036101000a81548160ff0219169083151502179055505b50505050565b60126020528060005260406000206000915054906101000a900473ffffffffffffffffffffffffffffffffffffffff1681565b50805460018160011615610100020316600290046000825580601f106115ab57506115ca565b601f0160209004906000526020600020908101906115c99190611786565b5b50565b8154818355818115116115fa576004028160040283600052602060002091820191016115f991906117ab565b5b505050565b828054600181600116156101000203166002900490600052602060002090601f016020900481019282601f1061164057805160ff191683800117855561166e565b8280016001018555821561166e579182015b8281111561166d578251825591602001919060010190611652565b5b50905061167b9190611786565b5090565b828054600181600116156101000203166002900490600052602060002090601f016020900481019282601f106116b857805485556116f5565b828001600101855582156116f557600052602060002091601f016020900482015b828111156116f45782548255916001019190600101906116d9565b5b5090506117029190611786565b5090565b828054600181600116156101000203166002900490600052602060002090601f016020900481019282601f1061174757805160ff1916838001178555611775565b82800160010185558215611775579182015b82811115611774578251825591602001919060010190611759565b5b5090506117829190611786565b5090565b6117a891905b808211156117a457600081600090555060010161178c565b5090565b90565b61180e91905b8082111561180a576000808201600090556001820160006101000a81549073ffffffffffffffffffffffffffffffffffffffff021916905560028201600090556003820160006118019190611585565b506004016117b1565b5090565b905600a165627a7a72305820c108d9c3e7338d23d4788847f7998c74402b651370dba6a1bb38c2cef64da7320029",
  "source": "pragma solidity ^0.4.17;\n\ncontract Home {\n  struct HomeCapacity {\n    uint guest;\n    uint bedroom;\n    uint bed;\n    uint bath;\n  }\n  struct HomeFeature {\n    bool internet;\n    bool kitchen;\n    bool iron;\n    bool hangers;\n  }\n  struct PrimaryData {\n    string name; \n    string description; \n    string street; \n    uint price; // Ether unit by wei\n    bool isValid;\n    uint checkinAt;\n    uint checkoutAt;\n    uint bookedAt;\n  }\n\n  struct Review {\n    uint createdTime;\n    address owner;\n    uint rate;\n    string message;\n  }\n\n  address public owner;\n  address public consumer;\n  PrimaryData public detail;\n  HomeCapacity public capacity;\n  HomeFeature public feature;\n\n  mapping (address => PrimaryData) public bookdataHistory;\n\n  mapping (uint => address) public bookSchedule;\n  mapping (uint => address) public checkinSchedule;\n  mapping (uint => address) public checkoutSchedule;\n\n  Review[] public reviewHistory;\n\n  modifier onlyOwner() {\n    if (msg.sender == owner) {\n      _;\n    }\n  }\n\n  modifier onlyConsumer() {\n    if (msg.sender == consumer) {\n      _;\n    }\n  }\n\n  modifier onlyInConsumer() {\n    if (bookdataHistory[msg.sender].isValid) {\n      _;\n    } \n  }\n\n  function Home(\n      string _name,\n      string _description,\n      string _street,\n      uint _price\n    ) public\n  {\n    owner = msg.sender;\n    detail.isValid = true;\n    detail.name = _name;\n    detail.description = _description;\n    detail.street = _street;\n    detail.price = _price;\n  }\n\n  function updateCapacity(\n    uint _guest,\n    uint _bedroom,\n    uint _bed,\n    uint _bath\n    ) public onlyOwner\n  {\n    capacity.guest = _guest;\n    capacity.bedroom = _bedroom;\n    capacity.bed = _bed;\n    capacity.bath = _bath;\n  }\n\n  function updateFeature (\n    bool _internet,\n    bool _kitchen,\n    bool _iron,\n    bool _hangers\n    ) public onlyOwner \n  {\n    feature.internet = _internet;\n    feature.kitchen = _kitchen;\n    feature.iron = _iron;\n    feature.hangers = _hangers;\n  }\n\n  function update (\n      string _name,\n      string _description,\n      string _street,\n      uint _price\n    ) public onlyOwner\n  {\n    detail.isValid = true;\n    detail.name = _name;\n    detail.description = _description;\n    detail.street = _street;\n    detail.price = _price;\n  }\n\n  function cancel(uint refundRate) public {\n    uint refundAmount = bookdataHistory[msg.sender].price * refundRate / 100;\n    msg.sender.transfer(refundAmount);\n    delete(bookdataHistory[msg.sender]);\n  }\n\n  function book(uint bookedAt, uint startDate, uint duration) public payable {\n    // Capture book data detail\n    detail.bookedAt = bookedAt;\n    bookdataHistory[msg.sender] = detail;\n    // Mark on book map\n    for ( uint i = 0; i < duration; i++ ) {\n      bookSchedule[startDate + i] = msg.sender;\n    }\n  }\n\n  function checkin(uint date) public {\n    if (bookSchedule[date] == msg.sender) {\n      consumer = msg.sender;\n      checkinSchedule[date] = msg.sender;\n      bookdataHistory[msg.sender].checkinAt = date;\n    }\n  }\n\n  function checkout(uint date) public onlyConsumer {\n    delete(consumer);\n    checkoutSchedule[date] = msg.sender;\n    bookdataHistory[msg.sender].checkoutAt = date;\n  }\n\n  function postReview(uint _rate, string _message, uint _createdTime) public onlyInConsumer {\n    reviewHistory.push(Review({owner: msg.sender, rate: _rate, message: _message, createdTime: _createdTime}));\n  }\n}\n",
  "sourcePath": "/Users/tamnguyen/Blockathon/blockathon2017-team1/smart-contracts/contracts/Home.sol",
  "compiler": {
    "name": "solc",
    "version": "0.4.18+commit.9cf6e910.Emscripten.clang"
  },
  "schemaVersion": "1.0.1",
  "updatedAt": "2017-11-25T05:21:40.361Z"
}