{
  "contractName": "Venue",
  "abi": [
    {
      "constant": false,
      "inputs": [
        {
          "name": "startDate",
          "type": "uint256"
        },
        {
          "name": "duration",
          "type": "uint256"
        }
      ],
      "name": "book",
      "outputs": [
        {
          "name": "",
          "type": "string"
        }
      ],
      "payable": true,
      "stateMutability": "payable",
      "type": "function"
    },
    {
      "constant": true,
      "inputs": [
        {
          "name": "",
          "type": "address"
        }
      ],
      "name": "bookdataHistory",
      "outputs": [
        {
          "name": "name",
          "type": "string"
        },
        {
          "name": "capacity",
          "type": "uint256"
        },
        {
          "name": "price",
          "type": "uint256"
        },
        {
          "name": "isValid",
          "type": "bool"
        }
      ],
      "payable": false,
      "stateMutability": "view",
      "type": "function"
    },
    {
      "constant": false,
      "inputs": [
        {
          "name": "date",
          "type": "uint256"
        },
        {
          "name": "_price",
          "type": "uint256"
        },
        {
          "name": "_capacity",
          "type": "uint256"
        }
      ],
      "name": "checkout",
      "outputs": [
        {
          "name": "name",
          "type": "string"
        },
        {
          "name": "capacity",
          "type": "uint256"
        },
        {
          "name": "price",
          "type": "uint256"
        }
      ],
      "payable": false,
      "stateMutability": "nonpayable",
      "type": "function"
    },
    {
      "constant": true,
      "inputs": [
        {
          "name": "",
          "type": "address"
        }
      ],
      "name": "detail",
      "outputs": [
        {
          "name": "name",
          "type": "string"
        },
        {
          "name": "capacity",
          "type": "uint256"
        },
        {
          "name": "price",
          "type": "uint256"
        },
        {
          "name": "isValid",
          "type": "bool"
        }
      ],
      "payable": false,
      "stateMutability": "view",
      "type": "function"
    },
    {
      "constant": true,
      "inputs": [],
      "name": "owner",
      "outputs": [
        {
          "name": "",
          "type": "address"
        },
        {
          "name": "capacity",
          "type": "uint256"
        },
        {
          "name": "price",
          "type": "uint256"
        }
      ],
      "payable": false,
      "stateMutability": "view",
      "type": "function"
    },
    {
      "constant": true,
      "inputs": [
        {
          "name": "",
          "type": "uint256"
        },
        {
          "name": "_price",
          "type": "uint256"
        },
        {
          "name": "_capacity",
          "type": "uint256"
        }
      ],
      "name": "bookSchedule",
      "outputs": [
        {
          "name": "",
          "type": "address"
        }
      ],
      "payable": false,
      "stateMutability": "view",
      "type": "function"
    },
    {
      "inputs": [
        {
          "name": "",
          "type": "uint256"
        },
        {
          "name": "_price",
          "type": "uint256"
        },
        {
          "name": "_capacity",
          "type": "uint256"
        }
      ],
      "payable": false,
      "stateMutability": "view",
      "type": "function",
      "constant": true,
      "name": "reviewHistory",
      "outputs": [
        {
          "name": "owner",
          "type": "address"
        },
        {
          "name": "rate",
          "type": "uint256"
        },
        {
          "name": "message",
          "type": "string"
        }
      ]
    },
    {
      "payable": false,
      "stateMutability": "nonpayable",
      "type": "function",
      "inputs": [
        {
          "name": "_rate",
          "type": "uint256"
        },
        {
          "name": "_message",
          "type": "string"
        },
        {
          "name": "_capacity",
          "type": "uint256"
        }
      ],
      "constant": false,
      "name": "review",
      "outputs": [
        {
          "name": "",
          "type": "address"
        },
        {
          "name": "rate",
          "type": "int256"
        },
        {
          "name": "message",
          "type": "string"
        }
      ]
    },
    {
      "payable": false,
      "stateMutability": "view",
      "type": "function",
      "inputs": [
        {
          "name": "",
          "type": "uint256"
        },
        {
          "name": "_price",
          "type": "uint256"
        },
        {
          "name": "_capacity",
          "type": "uint256"
        }
      ],
      "constant": true,
      "name": "consumer",
      "outputs": [
        {
          "name": "",
          "type": "address"
        },
        {
          "name": "rate",
          "type": "int256"
        },
        {
          "name": "message",
          "type": "string"
        }
      ]
    },
    {
      "payable": false,
      "stateMutability": "nonpayable",
      "type": "function",
      "inputs": [
        {
          "name": "_name",
          "type": "string"
        },
        {
          "name": "_price",
          "type": "uint256"
        },
        {
          "name": "_capacity",
          "type": "uint256"
        }
      ],
      "constant": false,
      "name": "update",
      "outputs": [
        {
          "name": "",
          "type": "uint256"
        }
      ]
    },
    {
      "payable": false,
      "stateMutability": "view",
      "type": "function",
      "constant": true,
      "inputs": [
        {
          "name": "",
          "type": "uint256"
        },
        {
          "name": "message",
          "type": "string"
        },
        {
          "name": "_capacity",
          "type": "uint256"
        }
      ],
      "name": "checkinSchedule",
      "outputs": [
        {
          "name": "",
          "type": "address"
        }
      ]
    },
    {
      "inputs": [
        {
          "name": "date",
          "type": "uint256"
        },
        {
          "name": "_price",
          "type": "uint256"
        },
        {
          "name": "_capacity",
          "type": "uint256"
        }
      ],
      "payable": false,
      "stateMutability": "nonpayable",
      "type": "function",
      "constant": false,
      "name": "checkin",
      "outputs": [
        {
          "name": "",
          "type": "uint8"
        }
      ]
    },
    {
      "payable": false,
      "stateMutability": "view",
      "type": "function",
      "inputs": [
        {
          "name": "",
          "type": "uint256"
        },
        {
          "name": "message",
          "type": "string"
        },
        {
          "name": "_capacity",
          "type": "uint256"
        }
      ],
      "constant": true,
      "name": "checkoutSchedule",
      "outputs": [
        {
          "name": "",
          "type": "address"
        }
      ]
    },
    {
      "payable": false,
      "stateMutability": "nonpayable",
      "type": "constructor",
      "constant": false,
      "inputs": [
        {
          "name": "_name",
          "type": "string"
        },
        {
          "name": "_price",
          "type": "uint256"
        },
        {
          "name": "_capacity",
          "type": "uint256"
        }
      ],
      "name": "update",
      "outputs": []
    },
    {
      "inputs": [
        {
          "name": "_name",
          "type": "string"
        },
        {
          "name": "_price",
          "type": "uint256"
        },
        {
          "name": "_capacity",
          "type": "uint256"
        }
      ],
      "payable": false,
      "stateMutability": "nonpayable",
      "type": "constructor",
      "constant": false,
      "name": "update",
      "outputs": []
    },
    {
      "payable": true,
      "stateMutability": "payable",
      "type": "fallback",
      "inputs": [
        {
          "name": "_name",
          "type": "string"
        },
        {
          "name": "_price",
          "type": "uint256"
        },
        {
          "name": "_capacity",
          "type": "uint256"
        }
      ]
    },
    {
      "payable": true,
      "stateMutability": "payable",
      "type": "fallback"
    }
  ],
  "bytecode": "0x6060604052341561000f57600080fd5b60405161108c38038061108c83398101604052808051820191906020018051906020019091908051906020019091905050336000806101000a81548173ffffffffffffffffffffffffffffffffffffffff021916908373ffffffffffffffffffffffffffffffffffffffff16021790555082600260000190805190602001906100999291906100b5565b508160028001819055508060026001018190555050505061015a565b828054600181600116156101000203166002900490600052602060002090601f016020900481019282601f106100f657805160ff1916838001178555610124565b82800160010185558215610124579182015b82811115610123578251825591602001919060010190610108565b5b5090506101319190610135565b5090565b61015791905b8082111561015357600081600090555060010161013b565b5090565b90565b610f23806101696000396000f3006060604052600436106100c4576000357c0100000000000000000000000000000000000000000000000000000000900463ffffffff1680624ef6c6146100c95780631b8824b9146100ea5780634c9ba852146101d25780636b7cc44f146101f55780638da5cb5b146102b9578063a1432edf1461030e578063a63c626314610371578063abba79ff14610464578063b4fd7296146104ca578063d8bb9bb31461051f578063dc3eb9ae1461058e578063e4ba1518146105f1578063f28d6ae514610614575b600080fd5b6100e86004808035906020019091908035906020019091905050610677565b005b34156100f557600080fd5b610121600480803573ffffffffffffffffffffffffffffffffffffffff169060200190919050506107bb565b6040518080602001858152602001848152602001831515151581526020018281038252868181546001816001161561010002031660029004815260200191508054600181600116156101000203166002900480156101c05780601f10610195576101008083540402835291602001916101c0565b820191906000526020600020905b8154815290600101906020018083116101a357829003601f168201915b50509550505050505060405180910390f35b34156101dd57600080fd5b6101f360048080359060200190919050506107f7565b005b341561020057600080fd5b6102086108c8565b6040518080602001858152602001848152602001831515151581526020018281038252868181546001816001161561010002031660029004815260200191508054600181600116156101000203166002900480156102a75780601f1061027c576101008083540402835291602001916102a7565b820191906000526020600020905b81548152906001019060200180831161028a57829003601f168201915b50509550505050505060405180910390f35b34156102c457600080fd5b6102cc6108f2565b604051808273ffffffffffffffffffffffffffffffffffffffff1673ffffffffffffffffffffffffffffffffffffffff16815260200191505060405180910390f35b341561031957600080fd5b61032f6004808035906020019091905050610917565b604051808273ffffffffffffffffffffffffffffffffffffffff1673ffffffffffffffffffffffffffffffffffffffff16815260200191505060405180910390f35b341561037c57600080fd5b610392600480803590602001909190505061094a565b604051808473ffffffffffffffffffffffffffffffffffffffff1673ffffffffffffffffffffffffffffffffffffffff168152602001838152602001806020018281038252838181546001816001161561010002031660029004815260200191508054600181600116156101000203166002900480156104535780601f1061042857610100808354040283529160200191610453565b820191906000526020600020905b81548152906001019060200180831161043657829003601f168201915b505094505050505060405180910390f35b341561046f57600080fd5b6104c8600480803590602001909190803590602001908201803590602001908080601f016020809104026020016040519081016040528093929190818152602001838380828437820191505050505050919050506109a2565b005b34156104d557600080fd5b6104dd610ac8565b604051808273ffffffffffffffffffffffffffffffffffffffff1673ffffffffffffffffffffffffffffffffffffffff16815260200191505060405180910390f35b341561052a57600080fd5b61058c600480803590602001908201803590602001908080601f01602080910402602001604051908101604052809392919081815260200183838082843782019150505050505091908035906020019091908035906020019091905050610aee565b005b341561059957600080fd5b6105af6004808035906020019091905050610b77565b604051808273ffffffffffffffffffffffffffffffffffffffff1673ffffffffffffffffffffffffffffffffffffffff16815260200191505060405180910390f35b34156105fc57600080fd5b6106126004808035906020019091905050610baa565b005b341561061f57600080fd5b6106356004808035906020019091905050610c40565b604051808273ffffffffffffffffffffffffffffffffffffffff1673ffffffffffffffffffffffffffffffffffffffff16815260200191505060405180910390f35b6000600260066000600160009054906101000a900473ffffffffffffffffffffffffffffffffffffffff1673ffffffffffffffffffffffffffffffffffffffff1673ffffffffffffffffffffffffffffffffffffffff16815260200190815260200160002060008201816000019080546001816001161561010002031660029004610703929190610c73565b5060018201548160010155600282015481600201556003820160009054906101000a900460ff168160030160006101000a81548160ff021916908315150217905550905050600090505b818110156107b6573360076000838601815260200190815260200160002060006101000a81548173ffffffffffffffffffffffffffffffffffffffff021916908373ffffffffffffffffffffffffffffffffffffffff160217905550808060010191505061074d565b505050565b600660205280600052604060002060009150905080600001908060010154908060020154908060030160009054906101000a900460ff16905084565b600160009054906101000a900473ffffffffffffffffffffffffffffffffffffffff1673ffffffffffffffffffffffffffffffffffffffff163373ffffffffffffffffffffffffffffffffffffffff1614156108c557600160006101000a81549073ffffffffffffffffffffffffffffffffffffffff0219169055336009600083815260200190815260200160002060006101000a81548173ffffffffffffffffffffffffffffffffffffffff021916908373ffffffffffffffffffffffffffffffffffffffff1602179055505b50565b600280600001908060010154908060020154908060030160009054906101000a900460ff16905084565b6000809054906101000a900473ffffffffffffffffffffffffffffffffffffffff1681565b60076020528060005260406000206000915054906101000a900473ffffffffffffffffffffffffffffffffffffffff1681565b600a8181548110151561095957fe5b90600052602060002090600302016000915090508060000160009054906101000a900473ffffffffffffffffffffffffffffffffffffffff169080600101549080600201905083565b600660003373ffffffffffffffffffffffffffffffffffffffff1673ffffffffffffffffffffffffffffffffffffffff16815260200190815260200160002060030160009054906101000a900460ff1615610ac457600a8054806001018281610a0b9190610cfa565b916000526020600020906003020160006060604051908101604052803373ffffffffffffffffffffffffffffffffffffffff16815260200186815260200185815250909190915060008201518160000160006101000a81548173ffffffffffffffffffffffffffffffffffffffff021916908373ffffffffffffffffffffffffffffffffffffffff160217905550602082015181600101556040820151816002019080519060200190610abf929190610d2c565b505050505b5050565b600160009054906101000a900473ffffffffffffffffffffffffffffffffffffffff1681565b600260008082016000610b019190610dac565b600182016000905560028201600090556003820160006101000a81549060ff021916905550508260026000019080519060200190610b40929190610df4565b50816002800181905550806002600101819055506001600260030160006101000a81548160ff021916908315150217905550505050565b60086020528060005260406000206000915054906101000a900473ffffffffffffffffffffffffffffffffffffffff1681565b33600160006101000a81548173ffffffffffffffffffffffffffffffffffffffff021916908373ffffffffffffffffffffffffffffffffffffffff160217905550336008600083815260200190815260200160002060006101000a81548173ffffffffffffffffffffffffffffffffffffffff021916908373ffffffffffffffffffffffffffffffffffffffff16021790555050565b60096020528060005260406000206000915054906101000a900473ffffffffffffffffffffffffffffffffffffffff1681565b828054600181600116156101000203166002900490600052602060002090601f016020900481019282601f10610cac5780548555610ce9565b82800160010185558215610ce957600052602060002091601f016020900482015b82811115610ce8578254825591600101919060010190610ccd565b5b509050610cf69190610e74565b5090565b815481835581811511610d2757600302816003028360005260206000209182019101610d269190610e99565b5b505050565b828054600181600116156101000203166002900490600052602060002090601f016020900481019282601f10610d6d57805160ff1916838001178555610d9b565b82800160010185558215610d9b579182015b82811115610d9a578251825591602001919060010190610d7f565b5b509050610da89190610e74565b5090565b50805460018160011615610100020316600290046000825580601f10610dd25750610df1565b601f016020900490600052602060002090810190610df09190610e74565b5b50565b828054600181600116156101000203166002900490600052602060002090601f016020900481019282601f10610e3557805160ff1916838001178555610e63565b82800160010185558215610e63579182015b82811115610e62578251825591602001919060010190610e47565b5b509050610e709190610e74565b5090565b610e9691905b80821115610e92576000816000905550600101610e7a565b5090565b90565b610ef491905b80821115610ef057600080820160006101000a81549073ffffffffffffffffffffffffffffffffffffffff02191690556001820160009055600282016000610ee79190610dac565b50600301610e9f565b5090565b905600a165627a7a72305820382ecdfc2d433c801259e7511e9766f260a6accb2fe7e1c301f7dd64b578df090029",
  "source": "pragma solidity ^0.4.17;\n\ncontract Venue {\n  struct BookData {\n    string name; \n    uint capacity;\n    uint price;\n    bool isValid;\n  }\n  struct Review {\n    address owner;\n    uint rate;\n    string message;\n  }\n  address public owner;\n  address public consumer;\n  BookData public detail;\n\n  mapping (address => BookData) public bookdataHistory;\n  mapping (uint => address) public bookSchedule;\n  mapping (uint => address) public checkinSchedule;\n  mapping (uint => address) public checkoutSchedule;\n  Review[] public reviewHistory;\n\n  modifier onlyOwner() {\n    if (msg.sender == owner) {\n      _;\n    }\n  }\n\n  modifier onlyConsumer() {\n    if (msg.sender == consumer) {\n      _;\n    }\n  }\n\n  modifier onlyInConsumer() {\n    if (bookdataHistory[msg.sender].isValid) {\n      _;\n    } \n  }\n\n  function Venue(string _name, uint _price, uint _capacity) public {\n    owner = msg.sender;\n    detail.name = _name;\n    detail.price = _price;\n    detail.capacity = _capacity;\n  }\n\n  function update(string _name, uint _price, uint _capacity) public {\n    delete(detail);\n    detail.name = _name;\n    detail.price = _price;\n    detail.capacity = _capacity;\n    detail.isValid = true;\n  }\n\n  function book(uint startDate, uint duration) public payable {\n    // Capture venue detail\n    bookdataHistory[consumer] = detail;\n    // Mark on book map\n    for ( uint i = 0; i < duration; i++ ) {\n      bookSchedule[startDate + i] = msg.sender;\n    }\n  }\n\n  function checkin(uint date) public {\n    consumer = msg.sender;\n    checkinSchedule[date] = msg.sender;\n  }\n\n  function checkout(uint date) public onlyConsumer {\n    delete(consumer);\n    checkoutSchedule[date] = msg.sender;\n  }\n\n  function review(uint _rate, string _message) public onlyInConsumer {\n    reviewHistory.push(Review({owner: msg.sender, rate: _rate, message: _message}));\n  }\n}\n",
  "sourcePath": "/Users/tamnguyen/Blockathon/blockathon2017-team1/smart-contracts/contracts/Venue.sol",
  "compiler": {
    "name": "solc",
    "version": "0.4.18+commit.9cf6e910.Emscripten.clang"
  },
  "schemaVersion": "1.0.1",
  "updatedAt": "2017-11-25T00:26:03.279Z"
}